:0400000002001132B7
:03000B0002017F70
:10006A007536007537FF7538FF7539FF753AFF75B4
:10007A003BFF753CFF753DFF753EFFE4F54CF54DC2
:03008A0002000E63
:03000E000203E109
:10008D00AF82C2A17E007D80C2A0ED550C24FF92EF
:10009D00A2D2A0EDC313FD70EF850D0C8F0DAF0B2C
:1000AD000EBE040040E0D2A1227E007F00C2B77CCC
:1000BD00647D001CBCFF011DEC4D70F7D2B77C6454
:1000CD007D001CBCFF011DEC4D70F70EBE00010F35
:1000DD00C3EE9464EF6480948040D222854E0B85EC
:1000ED004F0C9000111204FCE5828583F02413FE61
:1000FD00E435F0A2E713CE13CEFFE54E454F700168
:10010D0022854E0B854F0C90FFEDC0061204FCE5C9
:10011D00828583F0D0062413FDE435F0A2E713CDDC
:10012D0013CDFF8E037C00EBB50505ECB507012261
:10013D00EE24F54005BE0900502DEE2422F9AF4EF8
:10014D008E05EF2D2422F88607EE2436F8E65FF7AC
:10015D00E54EFF2D2422F98704E6FB5204EDC39FE3
:10016D002436F9E7FF4CF6AF4E8E05EDC39FFE0228
:10017D000107C021C0E0C0F0C082C083C007C00627
:10018D00C005C004C003C002C001C000C0D075D0FE
:10019D0000758C3C758AB0750A3D7582D01204C20B
:1001AD00AE827F00750A3E7582D0C007C00612046C
:1001BD00C2AD82D006D0077C00ED4FF54AEC4EF56E
:1001CD004BE4F54EF54FC37488954A7493854BF007
:1001DD0063F08095F05012754E01754F007535FF27
:1001ED00752BFF754000753600C3E54A9478E54BD5
:1001FD006480946C5012754EFF754FFF75490075F4
:10020D003F00752CFF7522FF750B0A750C00854C90
:10021D0082854D83120566E5828583F045F0600386
:10022D0002038A750B28750C00854C82854D83124F
:10023D000566E5828583F045F0702AAF3E8F05E4B3
:10024D005401A2E0CD13CD13CDFE4D60187401B550
:10025D004E0614B54F028002800BEF14F53EAF41F0
:10026D0074802FF541750B28750C00854C82854DDA
:10027D0083120566E5828583F045F0701CE541FF2C
:10028D00235401FE601374FFB54E0EB54F0BEF24D2
:10029D0080F541E53EFF04F53E7F01EF2436F987F9
:1002AD000B8F06740A2E2436F9870D8F0C8F82C0A2
:1002BD000712008DD0070FBF090040DF750B1E75AB
:1002CD000C00854C82854D83120566E5828583F091
:1002DD0045F06018750B32750C00854C82854D8389
:1002ED00120566E5828583F045F070031200E97F03
:1002FD00017401B54E0614B54F028002801D7E01BA
:10030D00EF2436F98705EE5D60078E04EC2CFE8038
:10031D00F3EDC313FDEE144DF7802974FFB54E2494
:10032D00B54F217E80EF2436F98705EE5D6006EE30
:10033D00C313FE80F4EE600CED2DFD7480C39E257D
:10034D00E0FE4DF70FBF130040A7750B1E750C0097
:10035D00854C82854D83120566E5828583F045F0D7
:10036D00601B750B32750C00854C82854D83120513
:10037D0066E5828583F045F060031200E9054CE4E3
:10038D00B54C02054DE4B54C07740AB54D02801409
:10039D00740AB54C05B54D02800A7414B54C087439
:1003AD000AB54D031200B67414B54C0B740AB54D55
:1003BD0006754C14754D00D0D0D000D001D002D0B0
:1003CD0003D004D005D006D007D083D082D0F0D092
:1003DD00E0D02132750B01750C0C750D0175820C79
:1003ED0012008D750B00750C0F750D0075820F12B7
:1003FD00008D750B00750C09750D007582091200C5
:10040D008D750B07750C0B750D0775820B12008D15
:10041D00750B00750C0A750D0075820A12008D752D
:10042D00086B7509007582D01204A5758901758C4C
:10043D003C758AB0D2A9D2AFD28C80FED281D28047
:10044D00C281C28022C281D280D28122A200928139
:10045D00D280C28022D280A28192D7C280A2D7221E
:10046D00AF827E008F05ED2DFFA2D79281D280C283
:10047D00800EBE080040ED0204627F00D2817E0036
:10048D008F05ED2DFDD280A281E4334DFFC2800E8C
:10049D00BE080040EB8F8222AF82C007120449D004
:1004AD00078F8212046D85088212046D85098212F0
:1004BD00046D020452AF82C007120449D0078F8227
:1004CD00C00712046D850A8212046D1204521204C3
:1004DD0049D00774014FF58212046D120487AF8263
:0F04ED00D200C007120459120452D0078F822286
:06004000E478FFF6D8FD94
:10001E007900E94400601B7A009005A0780175A074
:10002E0000E493F2A308B8000205A0D9F4DAF27541
:02003E00A0FF21
:1004FC00E582850BF0A4C582C0F0850CF0A4D0F089
:10050C0025F0C583850BF0A42583F58322E50B45E7
:10051C000C60467A01E50B25E0F50BE50C33401237
:10052C00F50CE582950BE583950C40030A80E6C338
:10053C00E50C13F50CE50B13F50BC3E582950BF5E8
:10054C00F0E583950C4005F58385F082C3E50C132B
:0A055C00F50CE50B13F50BDAE122B4
:100046007800E84400600A790175A000E4F309D855
:10005600FC7800E84400600C7900900001E4F0A30D
:04006600D8FCD9FAEF
:0D00110075814F12059CE582600302000E10
:10056600C2D5E58330E70DD2D5E4C39582F582E4A2
:100576009583F583E50C30E70BE4C3950BF50BE4A7
:10058600950CF50C12051930D50BE4C39582F5824E
:0A059600E49583F5832275820022AC
:00000001FF
