:03000000020006F5
:10005F00750A00E4F50BF50CF50DF50EF50FF5101F
:0C006F00F511F512F513F514F515F51652
:0300870002000371
:0300030002008A6E
:10008A00D281D280120576120329751A0075820070
:10009A001206DE751A007582021206DE9008627573
:1000AA00F080120688751A007582031206DE90081F
:1000BA006675F080120688751A007582041206DECB
:1000CA0090086A75F080120688751A007582051202
:1000DA0006DE90086E75F080120688751A00758221
:1000EA00061206DE90087275F080120688751A00EC
:1000FA007582071206DE90087675F08012068890DF
:10010A00000B75F0401203C690001175F0401204FE
:10011A0095750A0074FD250A401CE50A250A240B78
:10012A00F9870809870919AF0A74022FF582751A27
:10013A00361206DE801BE50AFF24FD25E02411F9AC
:10014A0087080987091974022FF582751A3612066B
:10015A00DEE50930E71375822D1205E5C3E495083B
:10016A00F508E49509F50980067582201205E575FA
:10017A001B10751C27850882850983120826AE8202
:10018A0074302EF5821205E5751B10751C2785083B
:10019A00828509831207F0751BE8751C031208266D
:1001AA00AE8274302EF5821205E5751BE8751C03C4
:1001BA008508828509831207F0751B64751C001275
:1001CA000826AE8274302EF5821205E5751B647519
:1001DA001C008508828509831207F0751B0A751CA5
:1001EA0000120826AE8274302EF5821205E5751BC0
:1001FA000A751C008508828509831207F0AE82748D
:10020A00302EF5821205E5050A74FA250A40030222
:0B021A00011E9000641203170201098E
:100862004158200041592000415A20004758200099
:0808720047592000475A2000FD
:10022500D281D280120312C281120312C28022C26D
:1002350081D280120312D281020312A2009281D2CE
:1002450080120312C280020312D280120312A2810D
:1002550092D7C280120312A2D722AF827E008F05E9
:10026500ED2DFFA2D79281D280C007C006120312DE
:10027500C280120312D006D0070EBE080040DF026E
:10028500024E7F00D2817E008F05ED2DFDD280C00C
:1002950006C005120312D005D006A281E4334DFF36
:1002A500C280C007C006120312D006D0070EBE08D2
:1002B5000040D58F8222AF82C007120225D0078F5A
:1002C5008212025F85178212025F85188212025F11
:1002D500020234AF82C007120225D0078F82C00701
:1002E50012025F85198212025F120234120225D0B2
:1002F5000774014FF58212025F120287AF82D200A6
:10030500C007120240120234D0078F82227F05DF18
:10031500FE22AC830CAD827E037FAADFFEDEFADD12
:04032500F6DCF222EE
:0C007B0075210075220175230675240014
:10032900900064120317752A6B752B007582D01221
:1003390003B7900064120317752A68752B07758235
:10034900D01203B7752A6B752B017582D01203B7CA
:10035900752A1A752B037582D01203B7752A197578
:100369002B007582D01203B7E522C40354F8F52B8C
:10037900752A1B7582D01203B7E521C40354F8F519
:100389002B752A1C7582D01203B7752A1D752B038C
:100399007582D01203B7752A37752B227582D01250
:1003A90003B7752A38752B007582D00203B7852AE1
:1003B90017852B180202BB852C190202D885822DBC
:1003C90085832E85F02F752C3B7582D01203C0E5ED
:1003D90082F524752C3C7582D01203C0E582F5257F
:1003E900752C3D7582D01203C0E582F526752C3E29
:1003F9007582D01203C0E582F527752C3F7582D02E
:100409001203C0E582F528752C407582D01203C00D
:10041900E582F529AC247B00AA257F00EA4203EF97
:100429004204852D82852E83852FF0EB120726A3A2
:10043900EC1207267402252DFDE4352EFEAF2FABF5
:10044900267C008B318C30AA27E5304202E5314207
:10045900048D828E838FF0EA120726A3EC120726F9
:100469007404252DFDE4352EFEAF2FAB287C008BBF
:10047900318C30AA29E5304202E53142048D828E61
:10048900838FF0EA120726A3EC02072685823285BC
:10049900833385F034752C487582D01203C0E58208
:1004A900F529752C477582D01203C0E582F52875A8
:1004B9002C467582D01203C0E582F527752C457547
:1004C90082D01203C0E582F526752C447582D012BC
:1004D90003C0E582F525752C437582D01203C0ACA3
:1004E900828C248C037C00AA257F00EA4204EF4217
:1004F900038532828533838534F0EC120726A3EB1A
:1005090012072674022532FDE43533FEAF34AB26DB
:100519007C008B368C35AA27E5354202E536420444
:100529008D828E838FF0EA120726A3EC12072674B8
:10053900042532FDE43533FEAF34AB287C008B361D
:100549008C35AA29E5354202E53642048D828E832F
:100559008FF0EA120726A3EC020726752A6B752B82
:10056900807582D01203B79000640203177582A8C0
:1005790012070E75823F12070E7582D312070E7588
:10058900820012070E75824012070E7582A11207AA
:100599000E7582C812070E7582DA12070E7582125D
:1005A90012070E75828112070E75827F12070E756A
:1005B90082A412070E7582A612070E7582D512073C
:1005C9000E75828012070E75828D12070E758214C0
:1005D90012070E7582AF12070E0206B3AF827D00B5
:1005E9007E00BF0A0122BF20067D007E00804CBF2D
:1005F9002D067D017E008043BF30004013EF24C6E5
:10060900400E8F037C00EB24D2FDEC34FFFE802BDF
:10061900BF41067D0C7E008022BF47067D0D7E000E
:100629008019BF58067D0E7E008010BF59067D0FC8
:100639007E008007BF5A047D107E008D1B8E1C90A2
:100649000005120741AE82AF837D008E048D03EB56
:100659002CFC3395E0FBEC247AF582EB3408F58326
:10066900E493F582C007C006C00512071AD005D069
:1006790006D0070DBD050040D275820002071AADEC
:1006890082AE83AFF08D828E838FF01207D4FC6027
:10069900188C820DBD00010EC007C006C0051205E9
:1006A900E5D005D006D00780DC227F00751A008FBF
:1006B90082C0071206DED0077E00758200C007C01F
:1006C9000612071AD006D0070EBE800040EC0FBFF5
:1006D900080040D822AF82AE1A74022EF51AAE1A5B
:1006E900740F5EF582C007C00612070ED006EEC46D
:1006F900540FFE74104EF58212070ED00774B04FD6
:10070900F58202070E858218751700758278020234
:0D071900BB8582187517407582780202BBFF
:10087A00000000000008080808083E5149453E00EB
:10088A00427F400042615149462141454B3118148B
:10089A00127F1027454545393C4A494930017109BB
:1008AA0005033649494936064949291E7C1211125F
:1008BA007C3E4149497A63140814630708700807A3
:0508CA006151494543A6
:06003500E478FFF6D8FD9F
:100013007900E94400601B7A009008CF780175A04D
:1000230000E493F2A308B8000205A0D9F4DAF2754C
:02003300A0FF2C
:1007260020F71130F6138883A88220F509F6A883EE
:100736007583002280FEF280F5F022E582851BF0AB
:10074600A4C582C0F0851CF0A4D0F025F0C5838531
:100756001BF0A42583F58322E51B451C60467A0120
:10076600E51B25E0F51BE51C334012F51CE58295DB
:100776001BE583951C40030A80E6C3E51C13F51CA4
:10078600E51B13F51BC3E582951BF5F0E583951C68
:100796004005F58385F082C3E51C13F51CE51B13A4
:0507A600F51BDAE12261
:10003B007800E84400600A790175A000E4F309D860
:10004B00FC7800E84400600C7900900001E4F0A318
:04005B00D8FCD9FAFA
:1007AB007A10E4FBFCE58225E0F582E58333F583E3
:1007BB00EB33FBEC33FCEB951BF5F0EC951C400697
:0907CB00FCABF0438201DADD22EF
:0D00060075813612085EE58260030200037A
:1007D40020F71430F6148883A88220F507E6A8834E
:1007E40075830022E280F7E49322E022C2D5E583F8
:1007F40030E70DD2D5E4C39582F582E49583F58381
:10080400E51C30E70BE4C3951BF51BE4951CF51CB4
:1008140012075E30D50BE4C39582F582E49583F527
:100824008322C2D5E58330E70DD2D5E4C39582F5A2
:1008340082E49583F583E51C30E70DB2D5E4C395D6
:100844001BF51BE4951CF51C1207AB30D50BE4C358
:0E0854009582F582E49583F583227582002259
:00000001FF
