:03000000020006F5
:03005F0002000399
:0300030002006296
:200062007F007508FF750910750A10750BFF8F0C750D81750EFF750F818F1075110E751208
:200082001C75133875141C75150E8F168F17C0071201E8D0077E088F047D008E027B00EAD6
:2000A2002CFCEB3DFDEC24FFF582ED34FFF583751B108B1CC007C006C005C004120277AA41
:2000C20082D004D005D006EA2408F9871A8E19758201C006C005C0041201A5D004D00574AA
:2000E200072CF582E43DF583751B10751C00120277AC82D006EC2408F9871A8E19758202A9
:20010200C0061201A5D006D0071EBE010050888F06EE04FFBF11027F009001F4C0071201C7
:0601220028D0070200973F
:20012800AD82BD0003BDFF0A7E037FAADFFEDEFADDF6AC83BC0001227D007E037FAADFFEBE
:07014800DEFADDF6DCF22215
:20014F00AF827E00C2A0EF23540124FF92A28F05ED2DFFD2A00EBE080040E97F00C2A0E5DF
:20016F001B23540124FF92A2E51B25E0F51BD2A00FBF080040E722AF82C2A17E0185181B15
:20018F008F82C007C00612014FD006D0070EEE24FD50EAD2A122AF82C2A17E02C3EF9E5003
:2001AF0014751B00758200C007C00612014FD006D0071E80E7851A1B851982C00712014F71
:2001CF00D0071FEF6010751B00758200C00712014FD0071F80EDD2A12275180175820C1270
:2001EF00018675180075820F12018675180075820912018675180775820B1201867518005B
:1B020F0075820A1201867F017518008F82C007120186D0070FEF24F750EE226C
:06003500E478FFF6D8FD9F
:200013007900E94400601B7A009002B1780175A000E493F2A308B8000205A0D9F4DAF275E0
:02003300A0FF2C
:20022A00E51B451C60467A01E51B25E0F51BE51C334012F51CE582951BE583951C40030A09
:20024A0080E6C3E51C13F51CE51B13F51BC3E582951BF5F0E583951C4005F58385F082C3D4
:0D026A00E51C13F51CE51B13F51BDAE12262
:20003B007800E84400600A790175A000E4F309D8FC7800E84400600C7900900001E4F0A3C3
:04005B00D8FCD9FAFA
:0D00060075811C1202ADE58260030200034B
:20027700C2D5E58330E70DD2D5E4C39582F582E49583F583E51C30E70BE4C3951BF51BE486
:16029700951CF51C12022A30D50BE4C39582F582E49583F5832276
:0402AD007582002234
:00000001FF
