:04000000020029329F
:01000B0032C2
:0100130032BA
:01001B0032B2
:030023000200D503
:03008200750900FD
:030088000200264D
:0300260002008B4A
:20008B00758920759850758DFAD28E75A89012018E7E017F00C3EE9409EF64809480501796
:2000AB008E82750A0FC007C00612012AD006D0070EBE00E10F80DE7401B509FB85080A75CC
:1600CB00820112012A75090080ED1098028006859908750901326D
:1200E100AC830CAD827E037FAADFFEDEFADDF6DCF22281
:03008500751000F3
:2000F300AF827E00C2B6EF23540124FF92B48F05ED2DFFD2B60EBE080040E97F00C2B6E5E8
:200113001123540124FF92B4E51125E0F511D2B60FBF080040E722AF82C2B57E01850A116B
:200133008F82C007C0061200F3D006D0070EEE24FE50EAD2B522AF82C2B57E01C3EF9E5094
:2001530014751100758200C007C0061200F3D006D0071E80E7850C11850B82C0071200F3B7
:20017300D0071FBF01004010751100758200C0071200F3D0071F80EBD2B522750A0175829C
:200193000C12012A750A0075820F12012A750AFF75820912012A750A0775820B12012A754C
:2001B3000A0075820A12012A7F01750A008F82C00712012AD0070FEF24F750EE22AD82AEA3
:2001D30083AFF07C018C027B001ABAFF011BEA2DFAEB3EF98F038A8289838BF0120314F5FF
:2001F3000A8C82C007C006C005C00412012AD004D005D006D0070CEC24F750C922AF827E2E
:20021300018E047D001CBCFF011DEC250DFCED350EFDAB0F8C828D838BF0120314F50C8E74
:200233000B8F82C007C006120149D006D0070EEE24F750CD22AD82AE83AFF07C08AA107BEB
:20025300008C007900EAC398FAEB99FB74082AF582E43BF5837511088912C007C006C00599
:20027300C004120330AA82AB83D004D005D006D007EA2DFAEB3EF98F038A8289838BF01248
:200293000314F50C8C0B758201C007C006C005C004120149D004D005D006D0071CBC010003
:1402B300509BE51004F51024F750037510009003E80200E1FD
:06005800E478FFF6D8FD7C
:200036007900E94400601B7A0090036A780175A000E493F2A308B8000205A0D9F4DAF27503
:02005600A0FF09
:2002C700E511451260467A01E51125E0F511E512334012F512E5829511E583951240030ABC
:2002E70080E6C3E51213F512E51113F511C3E5829511F5F0E58395124005F58385F082C373
:0D030700E51213F512E51113F511DAE122EC
:20005E007800E84400600A790175A000E4F309D8FC7800E84400600C7900900001E4F0A3A0
:04007E00D8FCD9FAD7
:0D002900758112120366E582600302002655
:1C03140020F71430F6148883A88220F507E6A88375830022E280F7E49322E022F8
:20033000C2D5E58330E70DD2D5E4C39582F582E49583F583E51230E70BE4C39511F511E4EA
:160350009512F5121202C730D50BE4C39582F582E49583F5832233
:04036600758200227A
:00000001FF
