:0400000002001132B7
:03000B000200A24E
:10006A00750800E4F509F50AF50BF50CF50DF50E22
:10007A00F50FF510751117F51275133BF514F515F3
:09008A00F516751780F518F5193B
:03009F0002000E4E
:03000E0002019E4E
:1000A200C021C0E0C0F0C082C083C007C006C00546
:1000B200C004C003C002C001C000C0D075D000752A
:1000C2008CFC758A180509E4B50902050AC3E5091D
:1000D20094E8E50A648094835003020181743BB57D
:1000E2001506E4B5160280028027743BB51306E4B8
:1000F200B514028002801A851182851283A3751EAF
:1001020018751F00120B66E5828583F0F51185F0E4
:1001120012743BB51506E4B516028002801A8513E7
:1001220082851483A3751E3C751F00120B66E5823F
:100132008583F0F51385F014851582851683A375E2
:100142001E3C751F00120B66E5828583F0F515854E
:10015200F016E4F509F50A050BB50B02050C850B43
:100162001E850C1F850D82850E83120B9C85821EB7
:1001720085831F90003C120AB785820F858310D0B9
:10018200D0D000D001D002D003D004D005D006D008
:1001920007D083D082D0F0D0E0D0213275890175AA
:1001A2008CFC758A18D2A9D2AFD28CD281D280129D
:1001B2000863751D00758200120979751D0075822C
:1001C20002120979900BD875F080120923751D006F
:1001D200758203120979900BDF75F080120923757D
:1001E2001D00758204120979900BE675F0801209E0
:1001F20023751D00758205120979900BED75F0804B
:10020200120923750800E50860030202C1AF0874F1
:10021200022FF582751D36120979851182851283A6
:10022200751E0A751F00120B9CAE8274302EF58269
:100232001208D2851182851283751E0A751F00125B
:100242000B66AE8274302EF5821208D275823A1293
:1002520008D2851382851483751E0A751F00120B3E
:100262009CAE8274302EF5821208D28513828514D8
:1002720083751E0A751F00120B66AE8274302EF54E
:10028200821208D275823A1208D2851582851683A7
:10029200751E0A751F00120B9CAE8274302EF582F9
:1002A2001208D2851582851683751E0A751F0012E3
:1002B2000B66AE8274302EF5821208D20204D47418
:1002C20001B508028003020373AF0874022FF5829E
:1002D200751D36120979751E10751F27850B8285CB
:1002E2000C83120B9CAE8274302EF5821208D275EA
:1002F2001E10751F27850B82850C83120B66751ED7
:10030200E8751F03120B9CAE8274302EF582120820
:10031200D2751EE8751F03850B82850C83120B664E
:10032200751E64751F00120B9CAE8274302EF5820E
:100332001208D2751E64751F00850B82850C83120C
:100342000B66751E0A751F00120B9CAE8274302E4E
:10035200F5821208D2751E0A751F00850B82850C64
:1003620083120B66AE8274302EF5821208D202041A
:10037200D47402B508028003020425AF0874022F68
:10038200F582751D36120979751E10751F27850DA8
:1003920082850E83120B9CAE8274302EF582120877
:1003A200D2751E10751F27850D82850E83120B666E
:1003B200751EE8751F03120B9CAE8274302EF582F7
:1003C2001208D2751EE8751F03850D82850E8312F1
:1003D2000B66751E64751F00120B9CAE8274302E64
:1003E200F5821208D2751E64751F00850D82850E76
:1003F20083120B66751E0A751F00120B9CAE827467
:10040200302EF5821208D2751E0A751F00850D82E4
:10041200850E83120B66AE8274302EF5821208D2DC
:100422000204D47403B5080280030204D4AF087432
:10043200022FF582751D36120979751E10751F2758
:10044200850F82851083120B9CAE8274302EF5824A
:100452001208D2751E10751F27850F828510831210
:100462000B66751EE8751F03120B9CAE8274302E4C
:10047200F5821208D2751EE8751F03850F8285105A
:1004820083120B66751E64751F00120B9CAE82747C
:10049200302EF5821208D2751E64751F00850F82F8
:1004A200851083120B66751E0A751F00120B9CAE17
:1004B2008274302EF5821208D2751E0A751F0085CD
:1004C2000F82851083120B66AE8274302EF5821273
:1004D20008D2050874FC250840030202087401B51D
:1004E200180614B519028002800B20A408050DE439
:1004F200B50D02050EA2A4E433F51875190090009B
:070502006412075F0202050D
:100BD8002054696D65200050656F706C6500416335
:0C0BE8006350656F0044796E50656F002B
:0C009300752200752301752406752500F8
:1005090090006412075F752B6B752C007582D012F1
:10051900059890006412075F752B68752C07758222
:10052900D0120598752B6B752C017582D012059820
:10053900752B1A752C037582D0120598752B1975B0
:100549002C007582D0120598E523C40354F8FF8F57
:100559002C752B1B7582D0120598E522C40354F81B
:10056900F52C752B1C7582D0120598752B1D752CD1
:10057900037582D0120598752B37752C227582D098
:10058900120598752B38752C007582D0020598854F
:100599002B1A852C1B020807852D1C02082485822D
:1005A9002E85832F85F030752D3B7582D01205A1DC
:1005B900E582F525752D3C7582D01205A1E582F5F8
:1005C90026752D3D7582D01205A1E582F527752D79
:1005D9003E7582D01205A1E582F528752D3F7582F9
:1005E900D01205A1E582F529752D407582D0120535
:1005F900A1AC828C2AAB257A00AE267F00EE42029E
:10060900EF4203852E82852F838530F0EA120A9CFA
:10061900A3EB120A9C7402252EFDE4352FFEAF30A0
:10062900AA277B008A328B31AA287B00E531420256
:10063900E53242038D828E838FF0EA120A9CA3EB86
:10064900120A9C7404252EFDE4352FFEAF30AA2929
:100659007B008A328B318C037C00E5314203E53221
:1006690042048D828E838FF0EB120A9CA3EC020A5E
:100679009C85823385833485F035752D487582D004
:100689001205A1E582F52A752D477582D01205A1BB
:10069900E582F529752D467582D01205A1E582F509
:1006A90028752D457582D01205A1E582F527752D8E
:1006B900447582D01205A1E582F526752D43758210
:1006C900D01205A1AC828C258C037C00AA267F0060
:1006D900EA4204EF42038533828534838535F0ECA1
:1006E900120A9CA3EB120A9C74022533FDE43534EB
:1006F900FEAF35AB277C008B378C36AA287C00E50A
:10070900364202E53742048D828E838FF0EA120A5F
:100719009CA3EC120A9C74042533FDE43534FEAF26
:1007290035AB297C008B378C36AA2A7C00E536420A
:1007390002E53742048D828E838FF0EA120A9CA368
:10074900EC020A9C752B6B752C807582D01205986A
:1007590090006402075FAC830CAD827E037FAADF41
:10076900FEDEFADDF6DCF222D281D28012085EC208
:100779008112085EC28022C281D28012085ED281B3
:1007890002085EA2009281D28012085EC28002082D
:100799005ED28012085EA28192D7C28012085EA240
:1007A900D722AF827E008F05ED2DFFA2D79281D28D
:1007B90080C007C00612085EC28012085ED006D04B
:1007C900070EBE080040DF02079A7F00D2817E0033
:1007D9008F05ED2DFDD280C006C00512085ED0053B
:1007E900D006A281E4334DFFC280C007C0061208BB
:1007F9005ED006D0070EBE080040D58F8222AF8298
:10080900C007120771D0078F821207AB851A8212AF
:1008190007AB851B821207AB020780AF82C00712A4
:100829000771D0078F82C0071207AB851C82120798
:10083900AB120780120771D00774014FF5821207B6
:10084900AB1207D3AF82D200C00712078C12078000
:10085900D0078F82227F05DFFE227582A81209A99F
:1008690075823F1209A97582D31209A975820012EE
:1008790009A97582401209A97582A11209A975826F
:10088900C81209A97582DA1209A97582121209A971
:100899007582811209A975827F1209A97582A4122C
:1008A90009A97582A61209A97582D51209A97582A5
:1008B900801209A975828D1209A97582141209A9D4
:1008C9007582AF1209A902094EAF82BF0A01227EC1
:1008D90000EF24E0F51EEE34FFF51F900005120A23
:1008E900B7AE82AF837D008D037C00EB2EFBEC3F1E
:1008F900FCEB24F4F582EC340BF583E493F582C028
:1009090007C006C0051209B5D005D006D0070DBD30
:10091900050040D37582000209B5AD82AE83AFF000
:100929008D828E838FF0120B4AFC60188C820DBD6C
:1009390000010EC007C006C0051208D2D005D006B6
:10094900D00780DC227F00751D008F82C007120945
:1009590079D0077E00758200C007C0061209B5D09C
:1009690006D0070EBE800040EC0FBF080040D82219
:10097900AF82AE1D74022EF51DAE1D740F5EF58299
:10098900C007C0061209A9D006EEC4540FFE7410A0
:100999004EF5821209A9D00774B04FF5820209A950
:1009A90085821B751A0075827802080785821B7576
:0809B9001A407582780208075C
:100BF400000000000000002F0000000700070014A0
:100C04007F147F14242A7F2A12231308646236492E
:100C14005522500005030000001C2241000041221F
:100C24001C0014083E081408083E08080000A060D0
:100C3400000808080808006060000020100804028A
:100C44003E5149453E00427F4000426151494621A0
:100C540041454B311814127F1027454545393C4A0C
:100C6400494930017109050336494949360649495C
:100C7400291E0036360000005636000008142241B2
:100C8400001414141414004122140802015109061A
:100C9400324959513E7C1211127C7F494949363EF2
:100CA400414141227F4141221C7F494949417F09F9
:100CB4000909013E4149497A7F0808087F00417FBC
:100CC40041002040413F017F081422417F404040C1
:100CD400407F020C027F7F0408107F3E4141413E69
:100CE4007F090909063E4151215E7F0919294646BB
:100CF4004949493101017F01013F4040403F1F20E4
:100D040040201F3F4038403F6314081463070870B5
:100D140008076151494543007F41410055AA55AA3E
:100D2400550041417F00040201020440404040401C
:100D3400000305000020545454787F484444383854
:100D440044444420384444487F3854545418087E5A
:100D540009010218A4A4A47C7F0804047800447D3B
:100D640040004080847D007F1028440000417F4083
:100D7400007C041804787C0804047838444444381B
:100D8400FC2424241818242418FC7C08040408488F
:100D940054545420043F4440203C4040207C1C20B8
:100DA40040201C3C4030403C44281028441CA0A057
:100DB400A07C4464544C4400107C82000000FF007A
:0B0DC4000000827C10000006090906F8
:1009C100AF827E00C2A0EF23540124FF92A28F05C3
:1009D100ED2DFFD2A00EBE080040E97F00C2A0E5C8
:1009E1001E23540124FF92A2E51E25E0F51ED2A08C
:1009F1000FBF080040E722AF82C2A17E0185381EE9
:100A01008F82C007C0061209C1D006D0070EEE249E
:100A1100FD50EAD2A122AF82C2A17E02C3EF9E5055
:100A210014751E00758200C007C0061209C1D006E8
:100A3100D0071E80E7853A1E853982C0071209C199
:100A4100D0071FEF6010751E00758200C0071209E4
:100A5100C1D0071F80EDD2A12275380175820C1219
:100A610009F875380075820F1209F875380075821A
:100A7100091209F875380775820B1209F8753800E3
:100A810075820A1209F87F017538008F82C007123A
:0B0A910009F8D0070FEF24F750EE2209
:06004000E478FFF6D8FD94
:10001E007900E94400601B7A00900DCF780175A03D
:10002E0000E493F2A308B8000205A0D9F4DAF27541
:02003E00A0FF21
:100A9C0020F71130F6138883A88220F509F6A88375
:100AAC007583002280FEF280F5F022E582851EF02F
:100ABC00A4C582C0F0851FF0A4D0F025F0C58385B5
:100ACC001EF0A42583F58322E51E451F60467A019E
:100ADC00E51E25E0F51EE51F334012F51FE5829556
:100AEC001EE583951F40030A80E6C3E51F13F51F1F
:100AFC00E51E13F51EC3E582951EF5F0E583951FE3
:100B0C004005F58385F082C3E51F13F51FE51E1321
:050B1C00F51EDAE122E4
:100046007800E84400600A790175A000E4F309D855
:10005600FC7800E84400600C7900900001E4F0A30D
:04006600D8FCD9FAEF
:100B21007A10E4FBFCE58225E0F582E58333F58369
:100B3100EB33FBEC33FCEB951EF5F0EC951F400617
:090B4100FCABF0438201DADD2275
:0D00110075813A120BD4E582600302000EE7
:100B4A0020F71430F6148883A88220F507E6A883D4
:100B5A0075830022E280F7E49322E022C2D5E5837E
:100B6A0030E70DD2D5E4C39582F582E49583F58307
:100B7A00E51F30E70BE4C3951EF51EE4951FF51F2C
:100B8A00120AD430D50BE4C39582F582E49583F535
:100B9A008322C2D5E58330E70DD2D5E4C39582F529
:100BAA0082E49583F583E51F30E70DB2D5E4C3955A
:100BBA001EF51EE4951FF51F120B2130D50BE4C359
:0E0BCA009582F582E49583F5832275820022E0
:00000001FF
