:03000000020006F5
:10005F00752300E4F524F525F526F527F528F52970
:0F006F00F52AF52BF52CF52DF52EF52F75308094
:03008A000200036E
:0300030002008D6B
:10008D0075310075320075330075340075350075A6
:10009D003600753700753800753900120B3ED28168
:1000AD00D2801208F512059B751E00758200120A8A
:1000BD005D751E00758202120A5D900CBC75F08094
:1000CD00120A07751E00758203120A5D900CC07529
:1000DD00F080120A07751E00758204120A5D900CDD
:1000ED00C475F080120A07751E00758205120A5D2F
:1000FD00900CC875F080120A07751E0075820612E5
:10010D000A5D900CCC75F080120A07751E00758281
:10011D0007120A5D900CD075F080120A077530FF3A
:10012D007590009007D01207F17530007590FF9013
:10013D00002475F04012063990002A75F040120720
:10014D000C75230074FD2523401CE5232523242451
:10015D00F9872109872219AF2374022FF582751EA5
:10016D0036120A5D801BE523FF24FD25E0242AF9C4
:10017D0087210987221974022FF582751E36120AFE
:10018D005DE52230E71375822D120964C3E49521D4
:10019D00F521E49522F522800675822012096475F9
:1001AD004010754127852182852283120C80AE82F5
:1001BD0074302EF582120964754010754127852122
:1001CD0082852283120C4A7540E8754103120C801A
:1001DD00AE8274302EF5821209647540E8754103C4
:1001ED00852182852283120C4A7540647541001267
:1001FD000C80AE8274302EF58212096475406475E0
:10020D004100852182852283120C4A75400A754171
:10021D0000120C80AE8274302EF582120964754086
:10022D000A754100852182852283120C4AAE8274A3
:10023D00302EF582120964052374FA25234003023A
:10024D000151852821852922C3E5219480E5226469
:10025D008094BE50030203AE7530187590E790017F
:10026D00F41207F17530007590FF75361875351855
:10027D00752308E5232431F9873F85233E758201D7
:10028D00120AFB152374FF252340E890002475F016
:10029D004012063990002A75F04012070C752300A4
:1002AD0074FD2523401CE52325232424F9872109EA
:1002BD00872219AF2374022FF582751E36120A5D3F
:1002CD00801BE523FF24FD25E0242AF987210987DA
:1002DD00221974022FF582751E36120A5DE5223041
:1002ED00E71375822D120964C3E49521F521E49578
:1002FD0022F5228006758220120964754010754121
:10030D0027852182852283120C80AE8274302EF5D2
:10031D0082120964754010754127852182852283DB
:10032D00120C4A7540E8754103120C80AE82743090
:10033D002EF5821209647540E87541038521828589
:10034D002283120C4A754064754100120C80AE82F6
:10035D0074302EF582120964754064754100852153
:10036D0082852283120C4A75400A754100120C8059
:10037D00AE8274302EF58212096475400A75410003
:10038D00852182852283120C4AAE8274302EF5822D
:10039D00120964052374FA252340030202AD0202FB
:1003AD0055852421852522C37468952174458522A0
:1003BD00F063F08095F040277530037536C07535C4
:1003CD00C0752308E5232431F9873F85233E7582C7
:1003DD0001120AFB152374FF252340E802058DC386
:1003ED007468952174458522F063F08095F050383E
:1003FD00C374D89521745C8522F063F08095F0402C
:10040D0027753006753660753560752308E523242C
:10041D0031F9873F85233E758201120AFB1523743E
:10042D00FF252340E802058DC374D89521745C85A2
:10043D0022F063F08095F05038C374809521747369
:10044D008522F063F08095F0402775300C753630BD
:10045D00753530752308E5232431F9873F85233E13
:10046D00758201120AFB152374FF252340E802054E
:10047D008DC37480952174738522F063F08095F09F
:10048D005038C374809521748C8522F063F080956B
:10049D00F04027753018753618753518752308E531
:1004AD00232431F9873F85233E758201120AFB15FE
:1004BD002374FF252340E802058DC37480952174B4
:1004CD008C8522F063F08095F05038C374809521AF
:1004DD0074A58522F063F08095F040277530307556
:1004ED00360C75350C752308E5232431F9873F85C6
:1004FD00233E758201120AFB152374FF252340E864
:10050D0002058DC37480952174A58522F063F0805A
:10051D0095F05037C37480952174BE8522F063F039
:10052D008095F04026753060753606753506752355
:10053D0008E5232431F9873F85233E758201120A90
:10054D00FB152374FF252340E88035C37480952166
:10055D0074BE8522F063F08095F050247530C0751F
:10056D003603753503752308E5232431F9873F8557
:10057D00233E758201120AFB152374FF252340E8E3
:0E058D00E530F4F5909000641207F102013C95
:100CBC004158200041592000415A2000475820003B
:080CCC0047592000475A20009F
:0C007E00750800750901750A06750B0075
:10059B009000641207F175116B7512007582D01201
:1005AB00062A9000641207F175116875120775829F
:1005BB00D012062A75116B7512017582D012062A9C
:1005CB0075111A7512037582D012062A75111975D9
:1005DB0012007582D012062AE509C40354F8FF8F66
:1005EB001275111B7582D012062AE508C40354F844
:1005FB00F51275111C7582D012062A75111D751214
:10060B00037582D012062A7511377512227582D0A6
:10061B0012062A7511387512007582D002062A85CA
:10062B00113A85123B02089985133C0208B6858264
:10063B001485831585F01675133B7582D01206331E
:10064B00E582F50B75133C7582D0120633E582F506
:10065B000C75133D7582D0120633E582F50D7513BB
:10066B003E7582D0120633E582F50E75133F758207
:10067B00D0120633E582F50F7513407582D0120642
:10068B0033AC828C10AB0B7A00AE0C7F00EE4202C7
:10069B00EF42038514828515838516F0EA120B80D1
:1006AB00A3EB120B8074022514FDE43515FEAF1677
:1006BB00AA0D7B008A188B17AA0E7B00E517420246
:1006CB00E51842038D828E838FF0EA120B80A3EB29
:1006DB00120B8074042514FDE43515FEAF16AA0F1A
:1006EB007B008A188B178C037C00E5174203E518F7
:1006FB0042048D828E838FF0EB120B80A3EC020BE6
:10070B008085821985831A85F01B7513487582D0F5
:10071B00120633E582F5107513477582D012063336
:10072B00E582F50F7513467582D0120633E582F517
:10073B000E7513457582D0120633E582F50D7513D0
:10074B00447582D0120633E582F50C75134375821E
:10075B00D0120633AC828C0B8C037C00AA0C7F006E
:10076B00EA4204EF4203851982851A83851BF0EC5C
:10077B00120B80A3EB120B8074022519FDE4351AC2
:10078B00FEAF1BAB0D7C008B1D8C1CAA0E7C00E5F9
:10079B001C4202E51D42048D828E838FF0EA120B00
:1007AB0080A3EC120B8074042519FDE4351AFEAFFF
:1007BB001BAB0F7C008B1D8C1CAA107C00E51C4214
:1007CB0002E51D42048D828E838FF0EA120B80A30B
:1007DB00EC020B8075116B7512807582D012062A94
:1007EB009000640207F1AC830CAD827E037FAADF1D
:1007FB00FEDEFADDF6DCF222D281D2801208F0C2E4
:10080B00811208F0C28022C281D2801208F0D281FC
:10081B000208F0A2009281D2801208F0C280020876
:10082B00F0D2801208F0A28192D7C2801208F0A2F7
:10083B00D722AF827E008F05ED2DFFA2D79281D2FA
:10084B0080C007C0061208F0C2801208F0D006D094
:10085B00070EBE080040DF02082C7F00D2817E000D
:10086B008F05ED2DFDD280C006C0051208F0D00516
:10087B00D006A281E4334DFFC280C007C006120828
:10088B00F0D006D0070EBE080040D58F8222AF8273
:10089B00C007120803D0078F8212083D853A8212D7
:1008AB00083D853B8212083D020812AF82C0071239
:1008BB000803D0078F82C00712083D853C821208BF
:1008CB003D120812120803D00774014FF58212086B
:1008DB003D120865AF82D200C00712081E12081223
:1008EB00D0078F82227F05DFFE227582A8120A8D28
:1008FB0075823F120A8D7582D3120A8D7582001292
:10090B000A8D758240120A8D7582A1120A8D75822D
:10091B00C8120A8D7582DA120A8D758212120A8D2F
:10092B00758281120A8D75827F120A8D7582A412CF
:10093B000A8D7582A6120A8D7582D5120A8D758263
:10094B0080120A8D75828D120A8D758214120A8D92
:10095B007582AF120A8D020A32AF827D007E00BF14
:10096B000A0122BF20067D007E00804CBF2D067D34
:10097B00017E008043BF30004013EF24C6400E8F32
:10098B00037C00EB24D2FDEC34FFFE802BBF410631
:10099B007D0C7E008022BF47067D0D7E008019BF37
:1009AB0058067D0E7E008010BF59067D0F7E00809D
:1009BB0007BF5A047D107E008D408E4190000512BA
:1009CB000B9BAE82AF837D008E048D03EB2CFC332F
:1009DB0095E0FBEC24D4F582EB340CF583E493F532
:1009EB0082C007C006C005120A99D005D006D007F1
:1009FB000DBD050040D2758200020A99AD82AE830F
:100A0B00AFF08D828E838FF0120C2EFC60188C82CF
:100A1B000DBD00010EC007C006C005120964D0054C
:100A2B00D006D00780DC227F00751E008F82C007A6
:100A3B00120A5DD0077E00758200C007C006120A3D
:100A4B0099D006D0070EBE800040EC0FBF080040C7
:100A5B00D822AF82AE1E74022EF51EAE1E740F5E30
:100A6B00F582C007C006120A8DD006EEC4540FFEE5
:100A7B0074104EF582120A8DD00774B04FF58202B6
:100A8B000A8D85823B753A007582780208998582BA
:0A0A9B003B753A4075827802089915
:100CD400000000000008080808083E5149453E008D
:100CE400427F400042615149462141454B3118142D
:100CF400127F1027454545393C4A4949300171095D
:100D040005033649494936064949291E7C12111200
:100D14007C3E4149497A6314081463070870080744
:050D2400615149454347
:100AA500AF827E00C2A0EF23540124FF92A28F05DE
:100AB500ED2DFFD2A00EBE080040E97F00C2A0E5E3
:100AC5004023540124FF92A2E54025E0F540D2A041
:100AD5000FBF080040E722AF82C2A17E01853D40DD
:100AE5008F82C007C006120AA5D006D0070EEE24D5
:100AF500FD50EAD2A122AF82C2A17E02C3EF9E5071
:100B050014754000758200C007C006120AA5D006FC
:100B1500D0071E80E7853F40853E82C007120AA5A3
:100B2500D0071FEF6010754000758200C007120ADC
:100B3500A5D0071F80EDD2A122753D0175820C124B
:100B45000ADC753D0075820F120ADC753D00758261
:100B550009120ADC753D0775820B120ADC753D002A
:100B650075820A120ADC7F01753D008F82C007126B
:0B0B75000ADCD0070FEF24F750EE223F
:06003500E478FFF6D8FD9F
:100013007900E94400601B7A00900D29780175A0EE
:1000230000E493F2A308B8000205A0D9F4DAF2754C
:02003300A0FF2C
:100B800020F71130F6138883A88220F509F6A88390
:100B90007583002280FEF280F5F022E5828540F028
:100BA000A4C582C0F08541F0A4D0F025F0C58385AE
:100BB00040F0A42583F58322E540454160467A0153
:100BC000E54025E0F540E541334012F541E58295E9
:100BD00040E583954140030A80E6C3E54113F541B2
:100BE000E54013F540C3E5829540F5F0E583954176
:100BF0004005F58385F082C3E54113F541E54013D7
:050C0000F540DAE122DD
:10003B007800E84400600A790175A000E4F309D860
:10004B00FC7800E84400600C7900900001E4F0A318
:04005B00D8FCD9FAFA
:100C05007A10E4FBFCE58225E0F582E58333F58384
:100C1500EB33FBEC33FCEB9540F5F0EC95414006EE
:090C2500FCABF0438201DADD2290
:0D000600758141120CB8E582600302000311
:100C2E0020F71430F6148883A88220F507E6A883EF
:100C3E0075830022E280F7E49322E022C2D5E58399
:100C4E0030E70DD2D5E4C39582F582E49583F58322
:100C5E00E54130E70BE4C39540F540E49541F5419D
:100C6E00120BB830D50BE4C39582F582E49583F56B
:100C7E008322C2D5E58330E70DD2D5E4C39582F544
:100C8E0082E49583F583E54130E70DB2D5E4C39553
:100C9E0040F540E49541F541120C0530D50BE4C307
:0E0CAE009582F582E49583F5832275820022FB
:00000001FF
