:03000000020006F5
:03005F0002000399
:0300030002006296
:200062007E007F007C007D007A007B00D280D281D282C283C007C006C005C004C003C002BA
:20008200120596D002D003D004D005D006D00720A06CBE0169BF006690000AC005C004C05A
:2000A20003C00212040DD002D003D004D00520A04DC005C004C003C0021201C8858209D032
:2000C20002D003D004D005E50970187590FEC005C004C003C00212035DD002D003D004D05E
:2000E20005801B7401B5091675907FC005C004C003C002120388D002D003D004D00520A1D7
:2001020061BC015EBD005B90000AC003C00212040DD002D00320A14AC003C00212025F85DA
:20012200820AD002D003E50A70107590FCC003C00212035DD002D00380287401B50A10751F
:20014200907FC003C002120388D002D00380137402B50A0E7590BFC003C0021203B3D0020E
:20016200D00320B22BBA0128BB002590000A12040D20B21C12030CE582F50B70087590F842
:2001820012035D800B7401B50B0675907F120388A2A0E433FE7F00A2A1E433FC7D00A2B207
:2001A200E433FA7B00900014C007C006C005C004C003C00212040DD002D003D004D005D031
:0601C20006D007020091C7
:2001C800C280C28290000112040DD28390000A12040D1204CDAF82BF69028016C283900022
:2001E8006412040DD280D2829003E812040D758201221204FA9003E812040D7E007F0090D7
:200208000634E493FC740193FDC3EE9CEF9D503174302EFCE43FFDEE24D9F582EF3405F55D
:2002280083E493F50C8C828D83C007C00612047790000112040DD006D0070EBE00C10F8006
:20024800BEC28390006412040DD280D2829003E812040D75820022C280C2829000011204F2
:200268000DD28390000A12040D1204CDAF82BF69028016C28390006412040DD280D28290F1
:2002880003E812040D758201227E007F00900634E493FC740193FDC3EE9CEF9D50507430D2
:2002A8002EF582E43FF583C007C006120438AD82900001C00512040DD005D006D007EE24DF
:2002C800D9F582EF3405F583E493FCEDB504028016C28390006412040DD280D2829003E8F8
:2002E80012040D758202220EBE00A20F809FC28390006412040DD280D2829003E812040D7C
:2003080075820022C280C28290000112040DD28390000A12040D1204CDAF82BF690280169C
:20032800C28390006412040DD280D2829003E812040D758201221204FA9003E812040DC28B
:150348008390006412040DD280D2829003E812040D75820022A9
:2005D9007C197D19D2B71162C2B71162DDF6DCF27C197D19D2B7116FC2B7116FDDF6DCF280
:2005F9007C197D19D2B7117CC2B7117CDDF6DCF280277E0A7F13DFFEDEFA7F0DDFFE227E7B
:1D0619000A7F11DFFEDEFA7F09DFFE227E0A7F0FDFFEDEFA7F07DFFE2280FE5B00C5
:20035D007E007F00D2B7900001C007C00612040DC2B790000112040DD006D0070EBE000112
:20037D000FC3EE9464EF940040DA227E007F00D2B7900001C007C00612040DC2B790000118
:20039D0012040DD006D0070EBE00010FC3EE94F4EF940140DA227E007F00D2B7900001C0C4
:2003BD0007C00612040DC2B790000112040DD006D0070EBE00010FC3EE94F4EF940140DAA3
:2003DD007E007F00D2B7900001C007C00612040DC2B790000112040DD006D0070EBE000192
:0B03FD000FC3EE94F4EF940140DA22ED
:200408007F05DFFE22AD82BD0003BDFF0A7E027FE4DFFEDEFADDF6AC83BC0001227D007E28
:10042800027FE4DFFEDEFADDF67B4BDBFEDCEE224C
:20043800AE82AF83758220C007C006120527120408D006D0078F82C007C0061205271204A3
:2004580008D006D0078E82120527120408758200120527AF82C007120408D0078F8222AE60
:2004780082AF83758240C007C006120527120408D006D0078F82C007C006120527120408E9
:20049800D006D0078E82120527AF827E00C007C006120408850C82120527AD82C005120494
:2004B80008D005D006D0078F06E4FFFCED4FF582EC4EF583227582AC1205271204087582A9
:2004D80053120527120408758200120527120408758211120527AF82C007120408D0078F40
:2004F80082227582AC120527120408758280120527120408758212120527120408758213FF
:20051800120527AF82C007120408D0078F8222AF827E00C282C007C006120408D006D0071A
:200538007D008F03530380E4FCBB8004BC00010424FF92808F04EC2CFFC007C006C005129B
:200558000408D282120408D005D006D0078E04EC2CFC3081098C027B0043020180048C02C2
:1E0578007B008A06C282C007C006C005120408D005D006D0070DBD080040A78E822239
:200596007590559000C812040D7590AA9000C812040D7590559000C812040D7590AA900032
:1F05B600C812040D7590559000C812040D7590AA9000C812040D7590FF9001F402040DA0
:06003500E478FFF6D8FD9F
:200013007900E94400601B7A00900636780175A000E493F2A308B8000205A0D9F4DAF27557
:02003300A0FF2C
:20003B007800E84400600A790175A000E4F309D8FC7800E84400600C7900900001E4F0A3C3
:04005B00D8FCD9FAFA
:0D00060075810C1205D5E582600302000330
:0405D5007582002209
:00000001FF
