:0400000002001132B7
:03000B0002009A56
:20006A00E4F508F509F50AF50BF50CF50DF50E750F7E75103075116D7512797513337514A4
:10008A005B75155F75167075177F75187B02000E04
:03000E00020102EA
:20009A00C020C0E0C0F0C082C083C007C006C005C004C003C002C001C000C0D075D000752B
:2000BA008CFC758A187401B50A1320A410850B0D850C0EE4F50BF50C12011D8008050BE49F
:2000DA00B50B02050CA2A4E433F50AD0D0D000D001D002D003D004D005D006D007D083D078
:2000FA0082D0F0D0E0D02032758901758CFC758A18D2A9D2AFD28C120242E4F50BF50CD258
:20011A00A480FE751A0A751B00850D82850E831202FAAE82EE240FF9871975820112022329
:20013A00751A0A751B00850D82850E8312033085820D85830E7F02BF042B751A0A751B004B
:20015A00850D82850E83C0071202FAAD82D007ED240FF9870674804EF5198F82C00712029E
:20017A0023D0078038E50D450E6026751A0A751B00850D82850E83C0071202FAAD82D007BA
:20019A00ED240FF987198F82C007120223D007800C7519008F82C007120223D007751A0A0D
:2001BA00751B00850D82850E83C00712033085820D85830ED0070FBF0900500302015122BE
:1201DA00AC830CAD827E037FAADFFEDEFADDF6DCF22287
:2001EC00AF827E00C2A0EF23540124FF92A28F05ED2DFFD2A00EBE080040E97F00C2A0E542
:20020C001A23540124FF92A2E51A25E0F51AD2A00FBF080040E722AF82C2A17E0185191A7A
:20022C008F82C007C0061201ECD006D0070EEE24FE50EAD2A12275190175820C120223753D
:20024C00190075820F12022375190075820912022375190775820B12022375190075820A1A
:18026C001202237F017519008F82C007120223D0070FEF24F750EE22D6
:06004000E478FFF6D8FD94
:20001E007900E94400601B7A0090036C780175A000E493F2A308B8000205A0D9F4DAF27519
:02003E00A0FF21
:20028400E51A451B60467A01E51A25E0F51AE51B334012F51BE582951AE583951B40030AB7
:2002A40080E6C3E51B13F51BE51A13F51AC3E582951AF5F0E583951B4005F58385F082C380
:0D02C400E51B13F51BE51A13F51ADAE1220C
:200046007800E84400600A790175A000E4F309D8FC7800E84400600C7900900001E4F0A3B8
:04006600D8FCD9FAEF
:2002D1007A10E4FBFCE58225E0F582E58333F583EB33FBEC33FCEB951AF5F0EC951B40061D
:0902F100FCABF0438201DADD22CE
:0D001100758120120368E582600302000E75
:2002FA00C2D5E58330E70DD2D5E4C39582F582E49583F583E51B30E70BE4C3951AF51AE406
:16031A00951BF51B12028430D50BE4C39582F582E49583F583229A
:20033000C2D5E58330E70DD2D5E4C39582F582E49583F583E51B30E70DB2D5E4C3951AF544
:180350001AE4951BF51B1202D130D50BE4C39582F582E49583F5832217
:040368007582002278
:00000001FF
