:03000000020006F5
:03005F0002000399
:0300030002006296
:200062007F807D007E00D2B2D2B320B254BD0151BE004E90000AC007C006C005120139D032
:2000820005D006D00720B2E29001F4C007C006C005120139D005D006D00720B21930B2FD89
:2000A200BF01047F40801ABF02047F808013EF0303543FFF800BBF01047F808004EFC313AC
:2000C200FF20B351BD014EBE004B90000AC007C006C005120139D005D006D00730B3030244
:2000E200006C9001F4C007120139D00720B31A30B3FDBF40047F01801CBF80047F028015DE
:200102008F04EC2C25E0FF800CBF80047F0180058F04EC2CFFEFF4F590A2B2E433FD7E0062
:17012200A2B390000AC007C006C005120139D005D006D00702006C49
:12013900AC830CAD827E037FAADFFEDEFADDF6DCF22228
:06003500E478FFF6D8FD9F
:200013007900E94400601B7A0090014F780175A000E493F2A308B8000205A0D9F4DAF27543
:02003300A0FF2C
:20003B007800E84400600A790175A000E4F309D8FC7800E84400600C7900900001E4F0A3C3
:04005B00D8FCD9FAFA
:0D00060075810712014BE5826003020003C3
:04014B007582002297
:00000001FF
