:03000000020006F5
:10005F0075087E750930750A6D750B79750C3375DA
:10006F000D5B750E5F750F7075107F75117B02003C
:01007F00037D
:0300030002008078
:100080001203F675820112033E120616AC82AD838E
:10009000AEF0FFC004C005C006C00790400075F078
:1000A0009C743F12046CAC82AD83AEF0FFE58124FA
:1000B000FCF5818C828D838EF0EF120622AE82AF2A
:1000C00083C007C006120616AA82AB83ACF0FDC03F
:1000D00002C003C004C00590A33375F0C27445127A
:1000E0000696AA82AB83ACF0FDE58124FCF5817411
:1000F0004DC0E07415C0E074B4C0E0743FC0E08A45
:10010000828B838CF0ED120438AA82AB83ACF0FDB5
:10011000E58124FCF581C002C003C004C005900045
:100120000075F0C8744212046CAA82AB83ACF0FD77
:10013000E58124FCF5818A828B838CF0ED12062206
:10014000AC82AD83D006D00775130A7514008E8279
:100150008F83C007C006C005C004120570E5822465
:1001600008F987127582011203D7D004D005D00692
:10017000D00775130A7514008E828F83C007C006DE
:10018000C005C00412044375130A751400120570EB
:10019000E5822408F987127582021203D7D004D0B1
:1001A00005D006D0077513647514008E828F83C046
:1001B00007C006C005C00412044375130A75140075
:1001C000120570E5822408F987127582031203D79D
:1001D000D004D005D006D0077513E87514038E82BD
:1001E0008F83C005C00412044375130A75140012EE
:1001F0000570E5822408F9870774804FF51275822F
:10020000041203D7D004D005C374DC9C74059D5040
:10021000030202BD75130A7514008C828D83C0051C
:10022000C004120570E5822408F987127582051250
:1002300003D7D004D00575130A7514008C828D8302
:10024000C005C00412044375130A7514001205702A
:10025000E5822408F987127582061203D7D004D0EC
:10026000057513647514008C828D83C005C004125B
:10027000044375130A751400120570E5822408F909
:10028000870774804FF5127582071203D7D004D008
:10029000057513E87514038C828D8312044375135E
:1002A0000A751400120570E5822408F98712758218
:1002B000081203D79000C812038902008385081230
:1002C0007582051203D78508127582061203D7744A
:1002D000804511F5127582071203D78511127582B8
:1002E000081203D79000C8120389020083AF827EF0
:1002F000007D008E04EC2CFEC2A0C007C006C00525
:1003000012039BD005D006D0078F035303807C00D7
:10031000EB4C24FF92A1C007C006C00512039BD27C
:10032000A012039BD005D006D00730A203430601DC
:100330008F04EC2CFF0DBD080040B88E8222AF82E6
:10034000C2A3758201C0071202EDD007BF010A7572
:1003500082E01202EDAF8280087582A01202EDAF3A
:100360008253070F8F067F00758200C007C00612F8
:1003700002EDAD82D006D0077C00ED4FF582EC4E49
:10038000F583D2A3C2A0C2A122AC830CAD827E03AE
:100390007FAADFFEDEFADDF6DCF2227F05DFFE2239
:1003A000AF827E00C2A0EF23540124FF92A18F05EB
:1003B000ED2DFFD2A00EBE080040E97F00C2A0E5EF
:1003C0001323540124FF92A1E51325E0F513D2A0D5
:1003D0000FBF080040E722AF82C2A47E018512133E
:1003E0008F82C007C0061203A0D006D0070EEE24ED
:1003F000FE50EAD2A42275120175820C1203D77541
:10040000120075820F1203D775120075820912034C
:10041000D775120775820B1203D775120075820A01
:100420001203D77F017512008F82C0071203D7D045
:10043000070FEF24F750EE22A8811818C6B2E7C6BE
:100440000205BD7A10E4FBFCE58225E0F582E58338
:1004500033F583EB33FBEC33FCEB9513F5F0EC95C4
:10046000144006FCABF0438201DADD2212050FBC1A
:10047000000302064EEF60FA30D502B2D1E583B434
:10048000FF03020664E582B4FF030206642583408D
:10049000072482400B02064E248314500302066494
:1004A000F582EA8DF0A4A8F0EA8EF0A428F8E435ED
:1004B000F0F9EB8DF0A428E935F0F9E433CA8FF0B8
:1004C000A429F9EA35F0FAEBF88EF0A429F9EA3517
:1004D000F0FAE433FBEC8DF0A429F9EA35F0FAE404
:1004E0003BFBE88FF0A42AFAEB35F0FBE433CCFDBC
:1004F0008EF0A42AFAEB35F0FBE43CFCED8FF0A47F
:100500002BFBEC35F0FC20E70312053D02062DAA7B
:1005100082AB83A2F73392D1F5826002D2F7ACF0BE
:10052000E58124F9F8E6FD08E6FE0886F008E6A273
:0D053000F73392D5F5836002D2F7AFF022C9
:06003500E478FFF6D8FD9F
:10053D007804EC7011E58224F8500AF582E4C9CAFA
:10054D00CBFCD8EF22EC7820058220E713D5820171
:10055D0022C3E933F9EA33FAEB33FBEC33FCD8EA87
:03056D00158222D2
:100013007900E94400601B7A009007EC780175A031
:1000230000E493F2A308B8000205A0D9F4DAF2754C
:02003300A0FF2C
:10057000E513451460467A01E51325E0F513E5140B
:10058000334012F514E5829513E583951440030A70
:1005900080E6C3E51413F514E51313F513C3E582E0
:1005A0009513F5F0E58395144005F58385F082C336
:1005B000E51413F514E51313F513DAE12212050F10
:1005C0007900E583B58202800D500312067CE58335
:1005D000C3958212076CE5D0C465D020E117EA2DDF
:1005E000FAEB3EFBEC3FFC5009740112076CEC4443
:1005F00080FC02062DC3EA9DFAEB9EFBEC9FFC50AB
:100600000FC3E499F9E49AFAE49BFBE49CFCB2D1B1
:0606100012053D02062D5B
:10003B007800E84400600A790175A000E4F309D860
:10004B00FC7800E84400600C7900900001E4F0A318
:04005B00D8FCD9FAFA
:10061600E4AC83AB82FAF9748E0207627F8E12070E
:10062600B5F58385F08222B98003EA13B34010EA58
:100636002401FAE43BFBE43CFC50047C800582BCCC
:10064600000EBB000BBA0008E4F5F0F583F5822234
:10065600A2D1E582138CF092F78B838A8222E4F58D
:1006660083F58275F080F4A2D11322E4F583F58236
:1006760075F0C0747F22E582C583F582A2D133A2CC
:10068600D592D11392D5ECCFFCEBCEFBEACDFA2274
:1006960012050F30D502B2D1BF0009BC0003020615
:1006A60071020664BC000302064EE583B4FF0BE547
:1006B60082B4FF0302067102064EE582B4FF03020E
:1006C6000664C395835007247F400B02064E2480A0
:1006D600145003020664F582C3ED9AEE9BEF9C402C
:1006E600111582C3EA33F9EB33FAEC33FBE433FC3E
:1006F6008005E4CCCBCAF9C08275F019C3E99DEA3E
:100706009EEB9FEC9400D5F002802D400EE99DF9FA
:10071600EA9EFAEB9FFBEC9400FCC3B3E833F8E5E2
:100726008233F582E58333F583C3E933F9EA33FA95
:10073600EB33FBEC33FC80C4B3E4F938FAE43582DE
:10074600FBE43583FCD082500405827C8012053D93
:0307560002064553
:0D0006007581141207AFE58260030200034C
:10075900FCABF0AA83A982749EC2D1F58212053D31
:1007690002062D6040F82582500274FFF582E824C4
:10077900F8501ECCCBCAF9E4CC24F85014CBCAF9F2
:10078900E4CB24F8500BCAF9E4CA24F850037900E1
:100799002224086010F8C3EC13FCEB13FBEA13FAEC
:1007A900E913F9D8F122758200227F9E1207DA3007
:1007B900D10302064EC3EF9582500974FFF5F0F597
:1007C90083F58222790012076C89828A838BF0EC87
:1007D90022AA82AB83A2F73392D1F5826002D2F7C3
:0307E900ACF0224F
:00000001FF
