:0400000002001132B7
:03000B0002016D82
:10006A007508B4E4F50DF50EF50FF510F511F51256
:0B007A00F513F514F515F51602000E45
:03000E000201DE0E
:10008500758207020091758206020091AF82C00752
:100095001205848508821205BED0078F821205BE1F
:1000A500D281D28012058474014508F5821205BEFD
:1000B5001205E6AF827E00C201C007C00612059F89
:1000C5001205E6AD82D006D0078D047D00EF42050E
:1000D500EE4204C201C005C00412059F1205E6D216
:1000E5000112059F120593D004D0058D828C8312D1
:1000F5000A1AAC82AD83AEF0FFC004C005C006C0CD
:100105000790D70A75F0A3743C1207F6AC82AD834D
:10011500AEF0FFE58124FCF5817433C0E07493C033
:10012500E07488C0E07443C0E08C828D838EF0EF6C
:100135001207EBAC82AD83AEF0FFE58124FCF581BF
:10014500C004C005C006C00790000075F0207441CA
:100155001207F6AC82AD83AEF0FFE58124FCF58194
:100165008C828D838EF0EF22C0E0C0F0C007C0D036
:1001750075D000758CFC758A18050DE4B50D020562
:100185000EC37408950F74808510F063F08095F0A8
:1001950092004017E50F30E00B30B7047F00800672
:1001A5007F0180027F00EF24FF92B7C3E50D94F431
:1001B500E50E648094814018E4F50DF50E20000AE3
:1001C500050FE4B50F0A05108006750F09751000B7
:1001D500D0D0D007D0F0D0E032758901758CFC7590
:1001E5008A18D2A9D2AFC28CC2B7C28CD2A2D2A36E
:1001F500C2A0C2A112068D751C007582001207A34C
:10020500900CA375F08012074D751C0075820212C3
:1002150007A3900CAD75F08012074D751C00758213
:10022500041207A3900CB775F08012074D751C00DA
:100235007582061207A3900CC275F08012074D1245
:10024500008B1209E685820985830A120085120949
:10025500E685820B85830C75820112053985821727
:10026500858318120A1AAC82AD83AEF0FFC004C0B4
:1002750005C006C00790400075F09C743F1207F654
:10028500AC82AD83AEF0FFE58124FCF581C004C0EE
:1002950005C006C007904C0075F0737447120A8FAD
:1002A500AC82AD83AEF0FFE58124FCF581E4C0E0CE
:1002B500C0E07460C0E07441C0E08C828D838EF034
:1002C500EF1207EBAC82AD83AEF0FFE58124FCF5C0
:1002D500818C828D838EF0EF1209E68582118583EC
:1002E50012751C3C7582001207A3C3E49511748036
:1002F5008512F063F08095F05063751DE8751E0357
:10030500851182851283120B6E751D64751E001290
:100315000BB7AE8274302EF5821206FC751D64751E
:100325001E00851182851283120B6E751D0A751EBE
:1003350000120BB7AE8274302EF5821206FC758260
:100345002E1206FC751D0A751E0085118285128305
:10035500120B6EAE8274302EF5821206FC751C3CB3
:100365007582021207A3751DE8751E03850B82852C
:100375000C83120B6E751D64751E00120BB7AE82D1
:1003850074302EF5821206FC751D64751E00850BF2
:1003950082850C83120B6E751D0A751E00120BB734
:1003A500AE8274302EF5821206FC75822E1206FC82
:1003B500751D0A751E00850B82850C83120B6EAEAA
:1003C5008274302EF5821206FC751C3C758204126F
:1003D50007A3751DE8751E03850982850A83120B1F
:1003E5006E751D64751E00120BB7AE8274302EF546
:1003F500821206FC751D64751E00850982850A83B7
:10040500120B6E751D0A751E00120BB7AE82743085
:100415002EF5821206FC75822E1206FC751D0A75D4
:100425001E00850982850A83120B6EAE8274302EFA
:10043500F5821206FCC3740A951174808512F06367
:10044500F08095F040030204DBC3E5119432E51218
:100455006480948040030204DBD28C7408B50F06D7
:10046500E4B5100280028075751C3C758206120782
:10047500A3751DE8751E03850B82850C83120B6E13
:10048500751D64751E00120BB7AE8274302EF58291
:100495001206FC751D64751E00850B82850C831282
:1004A5000B6E751D0A751E00120BB7AE8274302EC9
:1004B500F5821206FC75822E1206FC751D0A751E44
:1004C50000850B82850C83120B6EAE8274302EF57F
:1004D500821206FC8007C28CE4F50FF510900064CB
:0604E5001206760202443B
:100CA30044697374616E63653A00545F6F626A6589
:100CB30063743A00545F616D6269656E743A0054FF
:070CC3005F6C6173743A00DD
:1004EB00AF827E007D008E04EC2CFEC2A0C007C044
:1004FB0006C005120688D005D006D0078F0453041A
:10050B0080EC24FF92A1C007C006C005120688D25A
:10051B00A0120688D005D006D00730A203430601EF
:10052B008F04EC2CFF0DBD080040BB8E8222AF82E6
:10053B00C2A3758201C0071204EBD007BF010A7575
:10054B0082E01204EBAF8280087582A01204EBAF3D
:10055B008253070F8F067F00758200C007C00612FB
:10056B0004EBAD82D006D0077C00ED4FF582EC4E4C
:10057B00F583D2A3C2A0C2A122D281D2801206716E
:10058B00C281120671C28022C281D280120671D240
:10059B0081020671A2019281D280120671C2800281
:1005AB000671D280120671A28192D7C28012067197
:1005BB00A2D722AF827E008F05ED2DFFA2D79281AD
:1005CB00D280C007C006120671C280120671D00617
:1005DB00D0070EBE080040DF0205AD7F00D2817E42
:1005EB00008F05ED2DFDD280C006C005120671D01F
:1005FB0005D006A281E4334DFFC280C007C00612AE
:10060B000671D006D0070EBE080040D58F8222AFF0
:10061B0082C007120584D0078F821205BE8519820E
:10062B001205BE851A821205BE020593AF82C00762
:10063B00120584D0078F82C0071205BE851B82125C
:10064B0005BE120593120584D00774014FF5821273
:10065B0005BE1205E6AF82D201C00712059F120537
:10066B0093D0078F82227F05DFFE22AC830CAD82F5
:10067B007E037FAADFFEDEFADDF6DCF2227F05DFEA
:10068B00FE227582A81207D375823F1207D375829B
:10069B00D31207D37582001207D37582401207D38A
:1006AB007582A11207D37582C81207D37582DA122D
:1006BB0007D37582121207D37582811207D3758205
:1006CB007F1207D37582A41207D37582A61207D3A4
:1006DB007582D51207D37582801207D375828D125E
:1006EB0007D37582141207D37582AF1207D3020793
:1006FB0078AF82BF0A01227E00EF24E0F51DEE34B5
:10070B00FFF51E9000051208FAAE82AF837D008DB7
:10071B00037C00EB2EFBEC3FFCEB24CAF582EC34A4
:10072B000CF583E493F582C007C006C0051207DF02
:10073B00D005D006D0070DBD050040D37582000251
:10074B0007DFAD82AE83AFF08D828E838FF0120BFD
:10075B0052FC60188C820DBD00010EC007C006C094
:10076B00051206FCD005D006D00780DC227F007571
:10077B001C008F82C0071207A3D0077E0075820072
:10078B00C007C0061207DFD006D0070EBE800040A0
:10079B00EC0FBF080040D822AF82AE1C74022EF5BE
:1007AB001CAE1C740F5EF582C007C0061207D3D0B7
:1007BB0006EEC4540FFE74104EF5821207D3D00709
:1007CB0074B04FF5820207D385821A7519007582B2
:1007DB007802061A85821A75194075827802061AF4
:100CCA00000000000000002F0000000700070014C9
:100CDA007F147F14242A7F2A122313086462364958
:100CEA005522500005030000001C22410000412249
:100CFA001C0014083E081408083E08080000A060FA
:100D0A0000080808080800606000002010080402B3
:100D1A003E5149453E00427F4000426151494621C9
:100D2A0041454B311814127F1027454545393C4A35
:100D3A004949300171090503364949493606494985
:100D4A00291E0036360000005636000008142241DB
:100D5A000014141414140041221408020151090643
:100D6A00324959513E7C1211127C7F494949363E1B
:100D7A00414141227F4141221C7F494949417F0922
:100D8A000909013E4149497A7F0808087F00417FE5
:100D9A0041002040413F017F081422417F404040EA
:100DAA00407F020C027F7F0408107F3E4141413E92
:100DBA007F090909063E4151215E7F0919294646E4
:100DCA004949493101017F01013F4040403F1F200D
:100DDA0040201F3F4038403F6314081463070870DF
:100DEA0008076151494543007F41410055AA55AA68
:100DFA00550041417F000402010204404040404046
:100E0A00000305000020545454787F48444438387D
:100E1A0044444420384444487F3854545418087E83
:100E2A0009010218A4A4A47C7F0804047800447D64
:100E3A0040004080847D007F1028440000417F40AC
:100E4A00007C041804787C08040478384444443844
:100E5A00FC2424241818242418FC7C0804040848B8
:100E6A0054545420043F4440203C4040207C1C20E1
:100E7A0040201C3C4030403C44281028441CA0A080
:100E8A00A07C4464544C4400107C82000000FF00A3
:0B0E9A000000827C1000000609090621
:1007EB00A8811818C6B2E7C6020964120899BC00A2
:1007FB0003020A47EF60FA30D502B2D1E583B4FFAA
:10080B0003020A5DE582B4FF03020A5D25834007FC
:10081B002482400B020A472483145003020A5DF51D
:10082B0082EA8DF0A4A8F0EA8EF0A428F8E435F063
:10083B00F9EB8DF0A428E935F0F9E433CA8FF0A475
:10084B0029F9EA35F0FAEBF88EF0A429F9EA35F03C
:10085B00FAE433FBEC8DF0A429F9EA35F0FAE43B2A
:10086B00FBE88FF0A42AFAEB35F0FBE433CCFD8EDA
:10087B00F0A42AFAEB35F0FBE43CFCED8FF0A42B53
:10088B00FBEC35F0FC20E7031208C7020A26AA820C
:10089B00AB83A2F73392D1F5826002D2F7ACF0E5CD
:1008AB008124F9F8E6FD08E6FE0886F008E6A2F7D3
:0C08BB003392D5F5836002D2F7AFF02233
:06004000E478FFF6D8FD94
:1008C7007804EC7011E58224F8500AF582E4C9CA6D
:1008D700CBFCD8EF22EC7820058220E713D58201E4
:1008E70022C3E933F9EA33FAEB33FBEC33FCD8EAFA
:0308F70015822245
:10001E007900E94400601B7A00900EA5780175A066
:10002E0000E493F2A308B8000205A0D9F4DAF27541
:02003E00A0FF21
:1008FA00E582851DF0A4C582C0F0851EF0A4D0F063
:10090A0025F0C583851DF0A42583F58322E51D45C1
:10091A001E60467A01E51D25E0F51DE51E334012ED
:10092A00F51EE582951DE583951E40030A80E6C300
:10093A00E51E13F51EE51D13F51DC3E582951DF58C
:10094A00F0E583951E4005F58385F082C3E51E1305
:10095A00F51EE51D13F51DDAE1221208997900E565
:10096A0083B58202800D5003120A75E583C395820E
:10097A00120BEFE5D0C465D020E117EA2DFAEB3E61
:10098A00FBEC3FFC50097401120BEFEC4480FC02B3
:10099A000A26C3EA9DFAEB9EFBEC9FFC500FC3E4C8
:1009AA0099F9E49AFAE49BFBE49CFCB2D11208C7D9
:0309BA00020A2608
:100046007800E84400600A790175A000E4F309D855
:10005600FC7800E84400600C7900900001E4F0A30D
:04006600D8FCD9FAEF
:1009BD007A10E4FBFCE58225E0F582E58333F583CF
:1009CD00EB33FBEC33FCEB951DF5F0EC951E40067F
:1009DD00FCABF0438201DADD22120C32700AE582A3
:1009ED00458345F0700122E430D112F4700BE5F02F
:1009FD00F47006E58330E7012290800022700AE54D
:100A0D00F07006E58320E70122907FFF22E4AC839E
:100A1D00AB82FAF9748E020BADB98003EA13B340C1
:100A2D0010EA2401FAE43BFBE43CFC50047C800515
:100A3D0082BC000EBB000BBA0008E4F5F0F583F59F
:100A4D008222A2D1E582138CF092F78B838A8222C7
:100A5D00E4F583F58275F080F4A2D11322E4F583D9
:100A6D00F58275F0C0747F22E582C583F582A2D12F
:100A7D0033A2D592D11392D5ECCFFCEBCEFBEACDC0
:100A8D00FA2212089930D502B2D1BF0009BC000379
:100A9D00020A6A020A5DBC0003020A47E583B4FF3D
:100AAD000BE582B4FF03020A6A020A47E582B4FF2E
:100ABD0003020A5DC395835007247F400B020A474A
:100ACD002480145003020A5DF582C3ED9AEE9BEF6C
:100ADD009C40111582C3EA33F9EB33FAEC33FBE496
:100AED0033FC8005E4CCCBCAF9C08275F019C3E99B
:100AFD009DEA9EEB9FEC9400D5F002802D400EE90F
:100B0D009DF9EA9EFAEB9FFBEC9400FCC3B3E8332E
:100B1D00F8E58233F582E58333F583C3E933F9EAEA
:100B2D0033FAEB33FBEC33FC80C4B3E4F938FAE46D
:100B3D003582FBE43583FCD082500405827C801223
:050B4D0008C7020A3E8A
:0D001100758120120C9FE582600302000E35
:100B520020F71430F6148883A88220F507E6A883CC
:100B620075830022E280F7E49322E022C2D5E58376
:100B720030E70DD2D5E4C39582F582E49583F583FF
:100B8200E51E30E70BE4C3951DF51DE4951EF51E29
:100B920012091730D50BE4C39582F582E49583F5EB
:100BA2008322FCABF0AA83A982749EC2D1F5821281
:100BB20008C7020A26C2D5E58330E70DD2D5E4C3C1
:100BC2009582F582E49583F583E51E30E70DB2D573
:100BD200E4C3951DF51DE4951EF51E1209BD30D521
:100BE2000BE4C39582F582E49583F583226040F895
:100BF2002582500274FFF582E824F8501ECCCBCA3D
:100C0200F9E4CC24F85014CBCAF9E4CB24F8500B05
:100C1200CAF9E4CA24F8500379002224086010F8C3
:100C2200C3EC13FCEB13FBEA13FAE913F9D8F12234
:100C3200120C8DC3749E958240397900120BEF30ED
:100C4200D126E9F42401F582EAF43400F583EBF4C9
:100C52003400F5F0ECF43400700AE582458345F087
:100C6200700122E430E70F22EC20E71489828A83A4
:100C72008BF02230D10AE4F582F583F5F0748022FC
:100C820074FFF582F583F5F0747F22AA82AB83A20A
:100C9200F73392D1F5826002D2F7ACF0227582006E
:010CA200222F
:00000001FF
