:03000000020006F5
:03005F0002000399
:0300030002006296
:100062007E007F007C007D007A007B00D280D281FE
:10007200D282C283C007C006C005C004C003C0024A
:1000820012058AD002D003D004D005D006D00720B2
:10009200A06CBE0169BF006690000AC005C004C022
:1000A20003C002120401D002D003D004D00520A064
:1000B2004DC005C004C003C0021201C8858209D028
:1000C20002D003D004D005E50970187590FEC00572
:1000D200C004C003C002120351D002D003D004D026
:1000E20005801B7401B5091675907FC005C004C058
:1000F20003C00212037CD002D003D004D00520A199
:1001020061BC015EBD005B90000AC003C002120424
:1001120001D002D00320A14AC003C00212025885B6
:10012200820AD002D003E50A70107590FCC003C0A9
:1001320002120351D002D00380287401B50A10754F
:10014200907FC003C00212037CD002D003801374DC
:1001520002B50A0E7590BFC003C0021203A7D002F7
:10016200D00320B22BBA0128BB002590000A12044A
:100172000120B21C120300E582F50B70087590F89D
:10018200120351800B7401B50B0675907F12037C2C
:10019200A2A0E433FE7F00A2A1E433FC7D00A2B260
:1001A200E433FA7B00900014C007C006C005C00407
:1001B200C003C002120401D002D003D004D005D083
:1001C20006D007020091C280C2829000011204018F
:1001D200D28390000A1204011204C1AF82BF6902E5
:1001E2008016C283900064120401D280D2829003EE
:1001F200E8120401758201221204EE9003E812044F
:10020200017E007F0090061DE493FC740193FDC300
:10021200EE9CEF9D502AEE24CDF582EF3405F58356
:10022200E493F50C8E828F83C007C00612046B9094
:100232000001120401D006D0070EBE00C80F80C50F
:10024200C283900064120401D280D2829003E81229
:10025200040175820022C280C28290000112040150
:10026200D28390000A1204011204C1AF82BF690254
:100272008016C283900064120401D280D28290035D
:10028200E8120401758201227E007F0090061DE4BF
:1002920093FC740193FDC3EE9CEF9D504B8E828FB5
:1002A20083C007C00612042CAD82900001C0051263
:1002B2000401D005D006D007EE24CDF582EF340537
:1002C200F583E493FCEDB504028016C283900064CA
:1002D200120401D280D2829003E8120401758202D4
:1002E200220EBE00A70F80A4C283900064120401F4
:1002F200D280D2829003E812040175820022C28069
:10030200C282900001120401D28390000A120401F9
:100312001204C1AF82BF69028016C28390006412C8
:100322000401D280D2829003E81204017582012274
:100332001204EE9003E8120401C2839000641204D6
:0F03420001D280D2829003E8120401758200225A
:1005CD00020030FFFFFFFFFFFFFFFFFFFFFFFFFFF9
:1005DD00FFFFFFC2907C0A32FFFFFFFFFFFFFFFF0F
:1005ED00FFFFFFFFFFFFFFFFFFFFFFFFFFFFFFFF0E
:1005FD00D290D28A75A884BC0002D290120043DC3E
:10060D00FB80F47D647E027FE4DFFEDEFADDF62200
:02061D0050008B
:100351007E007F00D2B7900001C007C006120401E1
:10036100C2B7900001120401D006D0070EBE0001F1
:100371000FC3EE9464EF940040DA227E007F00D236
:10038100B7900001C007C006120401C2B790000176
:10039100120401D006D0070EBE00010FC3EE94F483
:1003A100EF940140DA227E007F00D2B7900001C0B5
:1003B10007C006120401C2B7900001120401D00661
:1003C100D0070EBE00010FC3EE94F4EF940140DAA2
:1003D1007E007F00D2B7900001C007C00612040161
:1003E100C2B7900001120401D006D0070EBE000171
:1003F1000FC3EE94F4EF940140DA227F05DFFE2271
:10040100AD82BD0003BDFF0A7E027FE4DFFEDEFA9E
:10041100DDF6AC83BC0001227D007E027FE4DFFEBD
:10042100DEFADDF67B4BDBFEDCEE22AE82AF8375BE
:100431008220C007C00612051B1203FCD006D0079C
:100441008F82C007C00612051B1203FCD006D0071D
:100451008E8212051B1203FC75820012051BAF82EE
:10046100C0071203FCD0078F8222AE82AF83758250
:1004710040C007C00612051B1203FCD006D0078F2F
:1004810082C007C00612051B1203FCD006D0078EDE
:100491008212051BAF827E00C007C0061203FC85D5
:1004A1000C8212051BAD82C0051203FCD005D006DB
:1004B100D0078F06E4FFFCED4FF582EC4EF5832269
:1004C1007582AC12051B1203FC75825312051B12B7
:1004D10003FC75820012051B1203FC7582111205C3
:1004E1001BAF82C0071203FCD0078F82227582AC3A
:1004F10012051B1203FC75828012051B1203FC7589
:10050100821212051B1203FC75821312051BAF82A6
:10051100C0071203FCD0078F8222AF827E00C28205
:10052100C007C0061203FCD006D0077D008F03531D
:100531000380E4FCBB8004BC00010424FF92808F93
:1005410004EC2CFFC007C006C0051203FCD28212C6
:1005510003FCD005D006D0078E04EC2CFC308109B9
:100561008C027B0043020180048C027B008A06C25C
:1005710082C007C006C0051203FCD005D006D00713
:100581000DBD080040A78E82227590559000C812BB
:1005910004017590AA9000C812040175905590004D
:1005A100C81204017590AA9000C8120401759055F3
:1005B1009000C81204017590AA9000C81204017538
:0805C10090FF9001F402040117
:06003500E478FFF6D8FD9F
:100013007900E94400601B7A0090061F780175A0FF
:1000230000E493F2A308B8000205A0D9F4DAF2754C
:02003300A0FF2C
:10003B007800E84400600A790175A000E4F309D860
:10004B00FC7800E84400600C7900900001E4F0A318
:04005B00D8FCD9FAFA
:0D00060075810C1205C9E58260030200033C
:0405C9007582002215
:00000001FF
