:03000000020006F5
:20005F00750831750931750A32750B31750C34750D33750E31750F317510327511317512FA
:20007F0035751334751431751531751637751736751834751933751A34751B34751C337535
:20009F001D31751E32751F317521007522FE7523107524107525107526FE75270075287EF3
:2000BF00752990752A90752B90752C7E752D00752E70752F907530907531907532FE7533D4
:2000DF00007534607535907536907537907538FE753900753AE0753B18753C06753D1875A1
:2000FF003EE0753F0075406C7541927542927543927544FE7545007546827547827548FE6C
:20011F00754982754A82754B00754C6E754D90754E90754F907550FE7551007552807553BF
:20013F00807554FE7555807556807557007558FE755910755A10755B10755CFE755D00757A
:20015F005E7C755F827560827561827562FE75630075647E75659075669075679075687E01
:15017F00756900756AE0756B18756C06756D18756EE00200032D
:0300030002019463
:200194007F008F6FC0071204B99007D0120257D0077D088F037C008D027E00EA2BFBEE3CB5
:2001B400FCEB24FFF582EC34FFF58375734E8E74C007C005C004C003120548AA82D003D09A
:2001D40004D005EA2421F987728D71758201C005C004C003120476D003D00474072BF5827F
:2001F400E43CF58375734E757400120548AC82D005EC2421F987728D71758202C0051204DD
:2002140076D005D0071DBD010050888F06EE04FFBF4F027F00900032C007120257E56F2474
:2002340008F987821202E2AD6F7E008D828E83A37573198E74120548AD82AE83D0078D6FB8
:030254000201A5FF
:20025700AD82BD0003BDFF0A7E037FAADFFEDEFADDF6AC83BC0001227D007E037FAADFFE8E
:07027700DEFADDF6DCF222E5
:20027E007E0A7F13DFFEDEFA7F0DDFFE22227E0A7F11DFFEDEFA7F09DFFE22227E0A7F0F58
:20029E00DFFEDEFA7F07DFFE22227E0A7F0EDFFEDEFA7F08DFFE7F0122227E0A7F0DDFFE01
:2002BE00DEFA7F017F0122227E0A7F0BDFFEDEFA7F04DFFE7F0122227E0A7F0ADFFEDEFA53
:2002DE007F012222AF82BF30069000C8020257BF31297D007E00C3ED940BEE6480948240D8
:2002FE000122D2B7C006C00512027EC2B712027ED005D0060DBD00DE0E80DBBF32297D00B9
:20031E007E00C3ED944CEE64809482400122D2B7C006C00512028CC2B712028CD005D006EE
:20033E000DBD00DE0E80DBBF33297D007E00C3ED9494EE64809482400122D2B7C006C00541
:20035E0012029AC2B712029AD005D0060DBD00DE0E80DBBF34297D007E00C3ED94BBEE6486
:20037E00809482400122D2B7C006C0051202A8C2B71202A8D005D0060DBD00DE0E80DBBFE6
:20039E0035297D007E00C3ED9410EE64809483400122D2B7C006C0051202B8C2B71202B821
:2003BE00D005D0060DBD00DE0E80DBBF36287D007E00C3ED9470EE648094835044D2B7C0D1
:2003DE0006C0051202C6C2B71202C6D005D0060DBD00DF0E80DCBF37287E007F00C3EE94E9
:2003FE00DCEF648094835019D2B7C007C0061202D6C2B71202D6D006D0070EBE00DF0F8066
:02041E00DC22DE
:20042000AF827E00C2A0EF23540124FF92A28F05ED2DFFD2A00EBE080040E97F00C2A0E50B
:200440007323540124FF92A2E57325E0F573D2A00FBF080040E722AF82C2A17E0185707389
:200460008F82C007C006120420D006D0070EEE24FD50EAD2A122AF82C2A17E02C3EF9E505B
:2004800014757300758200C007C006120420D006D0071E80E7857273857182C00712042095
:2004A000D0071FEF6010757300758200C007120420D0071F80EDD2A12275700175820C1218
:2004C000045775700075820F12045775700075820912045775700775820B120457757000D7
:1B04E00075820A1204577F017570008F82C007120457D0070FEF24F750EE2299
:06003500E478FFF6D8FD9F
:200013007900E94400601B7A00900582780175A000E493F2A308B8000205A0D9F4DAF2750C
:02003300A0FF2C
:2004FB00E573457460467A01E57325E0F573E574334012F574E5829573E583957440030A76
:20051B0080E6C3E57413F574E57313F573C3E5829573F5F0E58395744005F58385F082C3F0
:0D053B00E57413F574E57313F573DAE1222E
:20003B007800E84400600A790175A000E4F309D8FC7800E84400600C7900900001E4F0A3C3
:04005B00D8FCD9FAFA
:0D00060075817412057EE58260030200031F
:20054800C2D5E58330E70DD2D5E4C39582F582E49583F583E57430E70BE4C39573F573E4AA
:160568009574F5741204FB30D50BE4C39582F582E49583F583221F
:04057E007582002260
:00000001FF
