:03000000020006F5
:10005F00750830750931750A30750B31750C3075AF
:10006F000D35750E30750F357510307511367512DB
:10007F00307513367514307515357516357517308F
:10008F00751834751930751A34751B30751C337526
:10009F001D30751E33751F30752032752130752256
:1000AF0032752330752431752531752630020003E2
:030003000200BF39
:1000BF007E007F00EE2408F98705BD30117582C8D8
:1000CF00C007C006120285D006D00702026EBD31EE
:1000DF0037C2977B007C00C3EB940BEC6480948257
:1000EF005021D2B7C007C006C004C003120292C28B
:1000FF00B7120292D003D004D006D0070BBB00D7A3
:10010F000C80D4D29702026EBD3237C2967B007C30
:10011F0000C3EB944CEC648094825021D2B7C0079B
:10012F00C006C004C0031202A0C2B71202A0D003BF
:10013F00D004D006D0070BBB00D70C80D4D29602C8
:10014F00026EBD3337C2957B007C00C3EB9494ECF9
:10015F00648094825021D2B7C007C006C004C00388
:10016F001202AEC2B71202AED003D004D006D0072F
:10017F000BBB00D70C80D4D29502026EBD3437C2B0
:10018F00947B007C00C3EB94BBEC64809482502181
:10019F00D2B7C007C006C004C0031202BCC2B71258
:1001AF0002BCD003D004D006D0070BBB00D70C8005
:1001BF00D4D29402026EBD3536C2937B007C00C34D
:1001CF00EB9410EC648094835021D2B7C007C00623
:1001DF00C004C0031202CCC2B71202CCD003D004A9
:1001EF00D006D0070BBB00D70C80D4D2938070BD44
:1001FF003636C2927B007C00C3EB9470EC64809423
:10020F00835021D2B7C007C006C004C0031202DA60
:10021F00C2B71202DAD003D004D006D0070BBB004E
:10022F00D70C80D4D2928037BD3734C2917C007DF9
:10023F0000C3EC94DCED648094835021D2B7C007E7
:10024F00C006C005C0041202EAC2B71202EAD00407
:10025F00D005D006D0070CBC00D70D80D4D2910E9C
:10026F00BE00010FC3EE941FEF6480948050030211
:10027F0000C390000022AD827E027FE4DFFEDEFA33
:10028F00DDF6227E0A7F13DFFEDEFA7F0DDFFE2210
:10029F00227E0A7F11DFFEDEFA7F09DFFE22227E39
:1002AF000A7F0FDFFEDEFA7F07DFFE22227E0A7F44
:1002BF000EDFFEDEFA7F08DFFE7F0122227E0A7F3D
:1002CF000DDFFEDEFA7F017F0122227E0A7F0BDF28
:1002DF00FEDEFA7F04DFFE7F0122227E0A7F0ADF25
:0702EF00FEDEFA7F0122226E
:06003500E478FFF6D8FD9F
:100013007900E94400601B7A009002FA780175A028
:1000230000E493F2A308B8000205A0D9F4DAF2754C
:02003300A0FF2C
:10003B007800E84400600A790175A000E4F309D860
:10004B00FC7800E84400600C7900900001E4F0A318
:04005B00D8FCD9FAFA
:0D0006007581281202F6E5826003020003F6
:0402F60075820022EB
:00000001FF
