:060000000200190201E2FA
:03000B000201955A
:0300130002023EA8
:18007200750880E4F509F50AF50BF50CF50DF50E750F01F510020016F0
:0300160002008A5B
:20008A00750801758901758CFF758A9CD2A9D28CD2AFD2A8D2AAC28AC288E50D450E7003A0
:2000AA000201497401B50D0614B50E02800280187401B508067E807F008008E508C313FDBD
:2000CA00FE7F008E080201497402B50D06E4B50E028002801F7480B508067E017F00800A70
:2000EA00E50825E0FDFE3395E0FF8E08750F01751000804B7403B50D06E4B50E028002800D
:20010A003E7401B50F0614B510028002800C7480B50807E4F50FF5108011E50F4510700B75
:20012A007401B50806750F01751000E50F45106007E50825E0FF8005E508C313FF8F087E76
:20014A00007F008E0B8F0C90000AC007C00612028FD006D00774022EFEE43FFFC3EE9464FE
:20016A00EF6480948040DC7E637F008E0B8F0C90000AC007C00612028FD006D007EE24FE57
:20018A00FEEF34FFFF30E7E30200A4C0E0C0F0C0D0758CFF758A9C74022509F509E4350A56
:2001AA00F50AC3E5099464E50A648094804005E4F509F50AC3E509950BE50A6480850CF0DB
:2001CA0063F08095F05007E508F4F59080037590FFD0D0D0F0D0E032C020C0E0C0F0C082C5
:2001EA00C083C007C006C005C004C003C002C001C000C0D075D000050DE4B50D02050E7480
:20020A0004B50D06E4B50E0280028005E4F50DF50E9003E812028FD0D0D000D001D002D06E
:20022A0003D004D005D006D007D083D082D0F0D0E0D02032C020C0E0C0F0C082C083C007A8
:20024A00C006C005C004C003C002C001C000C0D075D000AF08759000902710C00712028F7D
:20026A00D007EFF508F4F590D0D0D000D001D002D003D004D005D006D007D083D082D0F097
:05028A00D0E0D020329D
:12028F00AC830CAD827E037FAADFFEDEFADDF6DCF222D1
:06004800E478FFF6D8FD8C
:200026007900E94400601B7A009002A5780175A000E493F2A308B8000205A0D9F4DAF275D9
:02004600A0FF19
:20004E007800E84400600A790175A000E4F309D8FC7800E84400600C7900900001E4F0A3B0
:04006E00D8FCD9FAE7
:0D0019007581201202A1E58260030200162D
:0402A1007582002240
:00000001FF
