:0300000002004CAF
:200008000000E2FBEAF2802C0000E0FBEAF08024E6B50202EBF62200E2B50202EBF22200DE
:20002800E0B50202EBF02230F6E0A88220F5D3EAC6F582228B822230F6E6A88220F5D980EE
:01004800CFE8
:0300A5000200490D
:030049000200A80A
:2000A8007F807D017E00EFF4F590BD0109BE0006EFC313FF8003EF2FFFEF7012BD0107BEF2
:2000C80000047F0180027F80EDF4FDEEF4FE858008750900900014C007C006C00512011AA7
:0B00E8001200F3D005D006D00780BB4B
:2000F300AD82BD0003BDFF0A7E037FAADFFEDEFADDF6AC83BC0001227D007E037FAADFFEF4
:07011300DEFADDF6DCF2224A
:06007B00E478FFF6D8FD59
:200059007900E94400601B7A0090013B780175A000E493F2A308B8000205A0D9F4DAF27511
:02007900A0FFE6
:1D011A00E5828508F0A4C582C0F08509F0A4D0F025F0C5838508F0A42583F58322A7
:200081007800E84400600A790175A000E4F309D8FC7800E84400600C7900900001E4F0A37D
:0400A100D8FCD9FAB4
:0D004C00758109120137E582600302004949
:0401370075820022AB
:00000001FF
