:0400000002001132B7
:03000B0002016D82
:10006A007508B4E4F50DF50EF50FF510F511F51256
:0B007A00F513F514F515F51602000E45
:03000E000201E903
:10008500758207020091758206020091AF82C00752
:100095001205DC850882120616D0078F8212061615
:1000A500D281D2801205DCE5084401F582120616DC
:1000B50012063EAF827E00C201C007C0061205F7D8
:1000C50012063EAD82D006D0078D047D00EF4205B5
:1000D500EE4204C201C005C0041205F712063ED265
:1000E500011205F71205EBD004D0058D828C831221
:1000F5000A5BAC82AD83AEF0FFC004C005C006C08C
:100105000790D70A75F0A3743C120837AC82AD830B
:10011500AEF0FFE58124FCF5817433C0E07493C033
:10012500E07488C0E07443C0E08C828D838EF0EF6C
:1001350012082CAC82AD83AEF0FFE58124FCF5817D
:10014500C004C005C006C00790000075F0207441CA
:10015500120837AC82AD83AEF0FFE58124FCF58152
:100165008C828D838EF0EF22C0E0C0F0C007C00600
:10017500C0D075D000758CFC758A18050DE4B50DD9
:1001850002050EC37408950F74808510F063F08026
:1001950095F09200401EE50F30E00F30B7067E0067
:1001A5007F00800A7E017F0080047E007F00EE4F85
:1001B50024FF92B7C3E50D94F4E50E648094814065
:1001C50018E4F50DF50E20000A050FE4B50F0A0534
:1001D500108006750F09751000D0D0D006D007D055
:1001E500F0D0E032758901758CFC758A18D2A9D2D8
:1001F500AFC28CC2B7C28CD2A2D2A1C2A0C2A11278
:1002050006CE751F007582001207E412059A1200CA
:100215008B120A2785820985830A120085120A270F
:1002250085820B85830C75820112049F8582178553
:100235008318120A5BAC82AD83AEF0FFC004C00523
:10024500C006C00790400075F09C743F120837AC9B
:1002550082AD83AEF0FFE58124FCF581C004C005C5
:10026500C006C007904C0075F0737447120AD0ACF5
:1002750082AD83AEF0FFE58124FCF581E4C0E0C0EA
:10028500E07460C0E07441C0E08C828D838EF0EF35
:1002950012082CAC82AD83AEF0FFE58124FCF5811C
:1002A5008C828D838EF0EF120A2785821185831249
:1002B500751F3C7582001207E4C3E49511748085AF
:1002C50012F063F08095F050637521E8752203857F
:1002D5001182851283120BAF752164752200120BF2
:1002E500F8AE8274302EF58212073D7521647522B1
:1002F50000851182851283120BAF75210A752200C4
:10030500120BF8AE8274302EF58212073D75822EDF
:1003150012073D75210A7522008511828512831207
:100325000BAFAE8274302EF58212073D751F3C75FA
:1003350082021207E47521E8752203850B82850C7C
:1003450083120BAF752164752200120BF8AE82740F
:10035500302EF58212073D752164752200850B82CA
:10036500850C83120BAF75210A752200120BF8AEAE
:100375008274302EF58212073D75822E12073D7567
:10038500210A752200850B82850C83120BAFAE8284
:1003950074302EF58212073DC3740A951174808559
:1003A50012F063F08095F0400302043EC3E511941A
:1003B50032E51264809480400302043ED28C7408B6
:1003C500B50F06E4B5100280028075751F3C758275
:1003D500061207E47521E8752203850B82850C83D7
:1003E500120BAF752164752200120BF8AE827430C2
:1003F5002EF58212073D752164752200850B8285D5
:100405000C83120BAF75210A752200120BF8AE8210
:1004150074302EF58212073D75822E12073D752127
:100425000A752200850B82850C83120BAFAE827490
:10043500302EF58212073D8007C28CE4F50FF510CA
:100445009000641204EA020213AF827E007D008EE2
:1004550004EC2CFEC2A0C007C006C0051204FCD0E7
:1004650005D006D0078F035303807C00EB4C24FF97
:1004750092A1C007C006C0051204FCD2A01204FC5C
:10048500D005D006D00730A2034306018F04EC2C1B
:10049500FF0DBD080040B88E8222AF82C2A37582CF
:1004A50001C00712044ED007BF010A7582E012048D
:1004B5004EAF8280087582A012044EAF8253070F9B
:1004C5008F067F00758200C007C00612044EAD82FC
:1004D500D006D0077C00ED4FF582EC4EF583D2A314
:1004E500C2A0C2A122AC830CAD827E037FAADFFE2F
:1004F500DEFADDF6DCF2227F05DFFE22AF827E002A
:10050500C2A0EF23540124FF92A28F05ED2DFFD247
:10051500A00EBE080040E97F00C2A0E521235401DA
:1005250024FF92A2E52125E0F521D2A00FBF080006
:1005350040E722AF82C2A17E018519218F82C007C3
:10054500C006120501D006D0070EEE24FE50EAD2F1
:10055500A122AF82C2A17E01C3EF9E501475210076
:10056500758200C007C006120501D006D0071E809F
:10057500E7851B21851A82C007120501D0071FEFE9
:100585006010752100758200C007120501D0071F94
:1005950080EDD2A12275190175820C1205387519E5
:1005A5000075820F12053875190075820912053814
:1005B50075190775820B12053875190075820A12AF
:1005C50005387F017519008F82C007120538D007DD
:1005D5000FEF24F750EE22D281D2801206C9C281D4
:1005E5001206C9C28022C281D2801206C9D28102F6
:1005F50006C9A2019281D2801206C9C2800206C92B
:10060500D2801206C9A28192D7C2801206C9A2D78A
:1006150022AF827E008F05ED2DFFA2D79281D28079
:10062500C007C0061206C9C2801206C9D006D00787
:100635000EBE080040DF0206057F00D2817E008FD6
:1006450005ED2DFDD280C006C0051206C9D005D026
:1006550006A281E4334DFFC280C007C0061206C959
:10066500D006D0070EBE080040D58F8222AF82C0CB
:10067500071205DCD0078F82120616851C8212062A
:1006850016851D821206160205EBAF82C0071205FC
:10069500DCD0078F82C007120616851E8212061649
:1006A5001205EB1205DCD00774014FF58212061610
:1006B50012063EAF82D201C0071205F71205EBD034
:1006C500078F82227F05DFFE227582A81208147526
:1006D500823F1208147582D312081475820012081D
:1006E500147582401208147582A11208147582C807
:1006F5001208147582DA120814758212120814751C
:10070500828112081475827F1208147582A412085A
:10071500147582A61208147582D512081475828084
:1007250012081475828D1208147582141208147536
:1007350082AF1208140207B9AF82BF0A01227E00F8
:10074500EF24E0F521EE34FFF52290000512093B78
:10075500AE82AF837D008D037C00EB2EFBEC3FFC6E
:10076500EB24E4F582EC340CF583E493F582C007C1
:10077500C006C005120820D005D006D0070DBD055E
:100785000040D3758200020820AD82AE83AFF08DA4
:10079500828E838FF0120B93FC60188C820DBD0046
:1007A500010EC007C006C00512073DD005D006D012
:1007B5000780DC227F00751F008F82C0071207E4C7
:1007C500D0077E00758200C007C006120820D0063B
:1007D500D0070EBE800040EC0FBF080040D822AF06
:1007E50082AE1F74022EF51FAE1F740F5EF582C018
:1007F50007C006120814D006EEC4540FFE74104E3E
:10080500F582120814D00774B04FF58202081485DA
:10081500821D751C0075827802067285821D751C05
:0708250040758278020672A3
:100CE400000000000000002F0000000700070014AF
:100CF4007F147F14242A7F2A12231308646236493E
:100D04005522500005030000001C2241000041222E
:100D14001C0014083E081408083E08080000A060DF
:100D24000008080808080060600000201008040299
:100D34003E5149453E00427F4000426151494621AF
:100D440041454B311814127F1027454545393C4A1B
:100D5400494930017109050336494949360649496B
:100D6400291E0036360000005636000008142241C1
:100D74000014141414140041221408020151090629
:100D8400324959513E7C1211127C7F494949363E01
:100D9400414141227F4141221C7F494949417F0908
:100DA4000909013E4149497A7F0808087F00417FCB
:100DB40041002040413F017F081422417F404040D0
:100DC400407F020C027F7F0408107F3E4141413E78
:100DD4007F090909063E4151215E7F0919294646CA
:100DE4004949493101017F01013F4040403F1F20F3
:100DF40040201F3F4038403F6314081463070870C5
:100E040008076151494543007F41410055AA55AA4D
:100E1400550041417F00040201020440404040402B
:100E2400000305000020545454787F484444383863
:100E340044444420384444487F3854545418087E69
:100E440009010218A4A4A47C7F0804047800447D4A
:100E540040004080847D007F1028440000417F4092
:100E6400007C041804787C0804047838444444382A
:100E7400FC2424241818242418FC7C08040408489E
:100E840054545420043F4440203C4040207C1C20C7
:100E940040201C3C4030403C44281028441CA0A066
:100EA400A07C4464544C4400107C82000000FF0089
:0B0EB4000000827C1000000609090607
:10082C00A8811818C6B2E7C60209A51208DABC00DE
:10083C0003020A88EF60FA30D502B2D1E583B4FF27
:10084C0003020A9EE582B4FF03020A9E2583400739
:10085C002482400B020A882483145003020A9EF55A
:10086C0082EA8DF0A4A8F0EA8EF0A428F8E435F022
:10087C00F9EB8DF0A428E935F0F9E433CA8FF0A434
:10088C0029F9EA35F0FAEBF88EF0A429F9EA35F0FB
:10089C00FAE433FBEC8DF0A429F9EA35F0FAE43BE9
:1008AC00FBE88FF0A42AFAEB35F0FBE433CCFD8E99
:1008BC00F0A42AFAEB35F0FBE43CFCED8FF0A42B12
:1008CC00FBEC35F0FC20E703120908020A67AA8248
:1008DC00AB83A2F73392D1F5826002D2F7ACF0E58C
:1008EC008124F9F8E6FD08E6FE0886F008E6A2F792
:0C08FC003392D5F5836002D2F7AFF022F2
:06004000E478FFF6D8FD94
:100908007804EC7011E58224F8500AF582E4C9CA2B
:10091800CBFCD8EF22EC7820058220E713D58201A2
:1009280022C3E933F9EA33FAEB33FBEC33FCD8EAB8
:0309380015822203
:10001E007900E94400601B7A00900EBF780175A04C
:10002E0000E493F2A308B8000205A0D9F4DAF27541
:02003E00A0FF21
:10093B00E5828521F0A4C582C0F08522F0A4D0F019
:10094B0025F0C5838521F0A42583F58322E5214578
:10095B002260467A01E52125E0F521E5223340129C
:10096B00F522E5829521E583952240030A80E6C3B3
:10097B00E52213F522E52113F521C3E5829521F537
:10098B00F0E58395224005F58385F082C3E52213BC
:10099B00F522E52113F521DAE1221208DA7900E5D7
:1009AB0083B58202800D5003120AB6E583C395828C
:1009BB00120C30E5D0C465D020E117EA2DFAEB3EDE
:1009CB00FBEC3FFC50097401120C30EC4480FC0230
:1009DB000A67C3EA9DFAEB9EFBEC9FFC500FC3E446
:1009EB0099F9E49AFAE49BFBE49CFCB2D112090856
:0309FB00020A6786
:100046007800E84400600A790175A000E4F309D855
:10005600FC7800E84400600C7900900001E4F0A30D
:04006600D8FCD9FAEF
:1009FE007A10E4FBFCE58225E0F582E58333F5838E
:100A0E00EB33FBEC33FCEB9521F5F0EC9522400635
:100A1E00FCABF0438201DADD22120C73700AE58220
:100A2E00458345F0700122E430D112F4700BE5F0ED
:100A3E00F47006E58330E7012290800022700AE50B
:100A4E00F07006E58320E70122907FFF22E4AC835D
:100A5E00AB82FAF9748E020BEEB98003EA13B3403F
:100A6E0010EA2401FAE43BFBE43CFC50047C8005D4
:100A7E0082BC000EBB000BBA0008E4F5F0F583F55E
:100A8E008222A2D1E582138CF092F78B838A822286
:100A9E00E4F583F58275F080F4A2D11322E4F58398
:100AAE00F58275F0C0747F22E582C583F582A2D1EE
:100ABE0033A2D592D11392D5ECCFFCEBCEFBEACD7F
:100ACE00FA221208DA30D502B2D1BF0009BC0003F7
:100ADE00020AAB020A9EBC0003020A88E583B4FF39
:100AEE000BE582B4FF03020AAB020A88E582B4FF6B
:100AFE0003020A9EC395835007247F400B020A8887
:100B0E002480145003020A9EF582C3ED9AEE9BEFE9
:100B1E009C40111582C3EA33F9EB33FAEC33FBE454
:100B2E0033FC8005E4CCCBCAF9C08275F019C3E959
:100B3E009DEA9EEB9FEC9400D5F002802D400EE9CD
:100B4E009DF9EA9EFAEB9FFBEC9400FCC3B3E833ED
:100B5E00F8E58233F582E58333F583C3E933F9EAA9
:100B6E0033FAEB33FBEC33FC80C4B3E4F938FAE42C
:100B7E003582FBE43583FCD082500405827C8012E2
:050B8E000908020A7FC6
:0D001100758122120CCEE582600302000E04
:100B930020F71430F6148883A88220F507E6A8838B
:100BA30075830022E280F7E49322E022C2D5E58335
:100BB30030E70DD2D5E4C39582F582E49583F583BE
:100BC300E52230E70BE4C39521F521E49522F522D4
:100BD30012095830D50BE4C39582F582E49583F569
:100BE3008322FCABF0AA83A982749EC2D1F5821240
:100BF3000908020A67C2D5E58330E70DD2D5E4C3FD
:100C03009582F582E49583F583E52230E70DB2D52D
:100C1300E4C39521F521E49522F5221209FE30D58E
:100C23000BE4C39582F582E49583F583226040F853
:100C33002582500274FFF582E824F8501ECCCBCAFB
:100C4300F9E4CC24F85014CBCAF9E4CB24F8500BC4
:100C5300CAF9E4CA24F8500379002224086010F882
:100C6300C3EC13FCEB13FBEA13FAE913F9D8F122F3
:100C7300120CD2C3749E958240397900120C303025
:100C8300D126E9F42401F582EAF43400F583EBF488
:100C93003400F5F0ECF43400700AE582458345F046
:100CA300700122E430E70F22EC20E71489828A8363
:100CB3008BF02230D10AE4F582F583F5F0748022BB
:100CC30074FFF582F583F5F0747F2275820022AA02
:100CD30082AB83A2F73392D1F5826002D2F7ACF0F4
:010CE30022EE
:00000001FF
