:03000000020006F5
:03005F0002000399
:0300030002006296
:100062007508007F88750900750A7E750B00750C8E
:1000720000750D00750E00750F00751000751100EA
:10008200C0071202F4D007C00712020090005A12F1
:1000920001D9120200AD82AE83D007ED4E70030289
:1000A2000142747EB50A03750A007B087C00EB24CA
:1000B20009F98B02EA142409F88602A7021BBBFF86
:1000C200011CC3EB9402EC6480948050E1BD010AF0
:1000D200BE0007750A307F018066BD020ABE0007B6
:1000E200750A6D7F028059BD030ABE0007750A7941
:1000F2007F04804CBD040ABE0007750A337F088066
:100102003FBD050ABE0007750A5B7F108032BD063F
:100112000ABE0007750A5F7F208025BD070ABE0060
:1001220007750A707F408018BD080ABE0007750A6D
:100132007F7F80800BBD0908BE0005750A7B7F8129
:10014200EFF4F5907D087E00EDF5822409F987151C
:10015200C007C006C005120292D005D006D0071D06
:10016200BDFF011EC3ED9401EE6480948050D9025C
:10017200008985821285831385F0147B087C008BAD
:100182000274082BF582E43CF58375180875190092
:10019200C004C003C00212039FA882A983D002D068
:1001A20003D004E82512F8E93513F9AF14888289DF
:1001B200838FF0120383F5158A82C004C0031202F2
:1001C20092D003D0041BBBFF011CC3EB9401EC646F
:1001D20080948050AA80A4AD82BD0003BDFF0A7E38
:1001E200037FAADFFEDEFADDF6AC83BC0001227DCE
:1001F200007E037FAADFFEDEFADDF6DCF222D28188
:10020200D282D283C284D285D28620810490000118
:10021200222082049000022220830490000322D232
:1002220084C285D286208104900004222082049018
:1002320000052220830490000622D284D285C28641
:10024200208104900007222082049000082220834B
:10025200049000092290000022AF827E00C2A0EF2B
:1002620023540124FF92A28F05ED2DFFD2A00EBED2
:10027200080040E97F00C2A0E51823540124FF9240
:10028200A2E51825E0F518D2A00FBF080040E7222A
:10029200AF82C2A17E018515188F82C007C00612E7
:1002A200025BD006D0070EEE24FE50EAD2A122AFA6
:1002B20082C2A17E01C3EF9E5014751800758200A0
:1002C200C007C00612025BD006D0071E80E7851762
:1002D20018851682C00712025BD0071FEF601075E7
:1002E2001800758200C00712025BD0071F80EDD292
:1002F200A12275150175820C120292751500758284
:100302000F12029275150075820912029275150775
:1003120075820B12029275150075820A1202927F83
:10032200017515008F82C007120292D0070FEF24C9
:04033200F750EE2270
:06003500E478FFF6D8FD9F
:100013007900E94400601B7A009003D9780175A048
:1000230000E493F2A308B8000205A0D9F4DAF2754C
:02003300A0FF2C
:10033600E518451960467A01E51825E0F518E5192E
:10034600334012F519E5829518E583951940030A9D
:1003560080E6C3E51913F519E51813F518C3E58208
:100366009518F5F0E58395194005F58385F082C368
:0D037600E51913F519E51813F518DAE12261
:10003B007800E84400600A790175A000E4F309D860
:10004B00FC7800E84400600C7900900001E4F0A318
:04005B00D8FCD9FAFA
:0D0006007581191203D5E582600302000325
:1003830020F71430F6148883A88220F507E6A883A3
:1003930075830022E280F7E49322E022C2D5E5834D
:1003A30030E70DD2D5E4C39582F582E49583F583D6
:1003B300E51930E70BE4C39518F518E49519F51919
:1003C30012033630D50BE4C39582F582E49583F5A9
:0603D30083227582002266
:00000001FF
